{
  "address": "0x750b389d847b1bDA0a0b846eA47eF4D3BE3837f2",
  "abi": [
    {
      "inputs": [
        {
          "internalType": "contract FNS",
          "name": "fnsAddr",
          "type": "address"
        }
      ],
      "stateMutability": "nonpayable",
      "type": "constructor"
    },
    {
      "anonymous": false,
      "inputs": [
        {
          "indexed": true,
          "internalType": "address",
          "name": "controller",
          "type": "address"
        },
        {
          "indexed": false,
          "internalType": "bool",
          "name": "enabled",
          "type": "bool"
        }
      ],
      "name": "ControllerChanged",
      "type": "event"
    },
    {
      "anonymous": false,
      "inputs": [
        {
          "indexed": true,
          "internalType": "contract NameResolver",
          "name": "resolver",
          "type": "address"
        }
      ],
      "name": "DefaultResolverChanged",
      "type": "event"
    },
    {
      "anonymous": false,
      "inputs": [
        {
          "indexed": true,
          "internalType": "address",
          "name": "previousOwner",
          "type": "address"
        },
        {
          "indexed": true,
          "internalType": "address",
          "name": "newOwner",
          "type": "address"
        }
      ],
      "name": "OwnershipTransferred",
      "type": "event"
    },
    {
      "anonymous": false,
      "inputs": [
        {
          "indexed": true,
          "internalType": "address",
          "name": "addr",
          "type": "address"
        },
        {
          "indexed": true,
          "internalType": "bytes32",
          "name": "node",
          "type": "bytes32"
        }
      ],
      "name": "ReverseClaimed",
      "type": "event"
    },
    {
      "inputs": [
        {
          "internalType": "address",
          "name": "owner",
          "type": "address"
        }
      ],
      "name": "claim",
      "outputs": [
        {
          "internalType": "bytes32",
          "name": "",
          "type": "bytes32"
        }
      ],
      "stateMutability": "nonpayable",
      "type": "function"
    },
    {
      "inputs": [
        {
          "internalType": "address",
          "name": "addr",
          "type": "address"
        },
        {
          "internalType": "address",
          "name": "owner",
          "type": "address"
        },
        {
          "internalType": "address",
          "name": "resolver",
          "type": "address"
        }
      ],
      "name": "claimForAddr",
      "outputs": [
        {
          "internalType": "bytes32",
          "name": "",
          "type": "bytes32"
        }
      ],
      "stateMutability": "nonpayable",
      "type": "function"
    },
    {
      "inputs": [
        {
          "internalType": "address",
          "name": "owner",
          "type": "address"
        },
        {
          "internalType": "address",
          "name": "resolver",
          "type": "address"
        }
      ],
      "name": "claimWithResolver",
      "outputs": [
        {
          "internalType": "bytes32",
          "name": "",
          "type": "bytes32"
        }
      ],
      "stateMutability": "nonpayable",
      "type": "function"
    },
    {
      "inputs": [
        {
          "internalType": "address",
          "name": "",
          "type": "address"
        }
      ],
      "name": "controllers",
      "outputs": [
        {
          "internalType": "bool",
          "name": "",
          "type": "bool"
        }
      ],
      "stateMutability": "view",
      "type": "function"
    },
    {
      "inputs": [],
      "name": "defaultResolver",
      "outputs": [
        {
          "internalType": "contract NameResolver",
          "name": "",
          "type": "address"
        }
      ],
      "stateMutability": "view",
      "type": "function"
    },
    {
      "inputs": [],
      "name": "fns",
      "outputs": [
        {
          "internalType": "contract FNS",
          "name": "",
          "type": "address"
        }
      ],
      "stateMutability": "view",
      "type": "function"
    },
    {
      "inputs": [
        {
          "internalType": "address",
          "name": "addr",
          "type": "address"
        }
      ],
      "name": "node",
      "outputs": [
        {
          "internalType": "bytes32",
          "name": "",
          "type": "bytes32"
        }
      ],
      "stateMutability": "pure",
      "type": "function"
    },
    {
      "inputs": [],
      "name": "owner",
      "outputs": [
        {
          "internalType": "address",
          "name": "",
          "type": "address"
        }
      ],
      "stateMutability": "view",
      "type": "function"
    },
    {
      "inputs": [],
      "name": "renounceOwnership",
      "outputs": [],
      "stateMutability": "nonpayable",
      "type": "function"
    },
    {
      "inputs": [
        {
          "internalType": "address",
          "name": "controller",
          "type": "address"
        },
        {
          "internalType": "bool",
          "name": "enabled",
          "type": "bool"
        }
      ],
      "name": "setController",
      "outputs": [],
      "stateMutability": "nonpayable",
      "type": "function"
    },
    {
      "inputs": [
        {
          "internalType": "address",
          "name": "resolver",
          "type": "address"
        }
      ],
      "name": "setDefaultResolver",
      "outputs": [],
      "stateMutability": "nonpayable",
      "type": "function"
    },
    {
      "inputs": [
        {
          "internalType": "string",
          "name": "name",
          "type": "string"
        }
      ],
      "name": "setName",
      "outputs": [
        {
          "internalType": "bytes32",
          "name": "",
          "type": "bytes32"
        }
      ],
      "stateMutability": "nonpayable",
      "type": "function"
    },
    {
      "inputs": [
        {
          "internalType": "address",
          "name": "addr",
          "type": "address"
        },
        {
          "internalType": "address",
          "name": "owner",
          "type": "address"
        },
        {
          "internalType": "address",
          "name": "resolver",
          "type": "address"
        },
        {
          "internalType": "string",
          "name": "name",
          "type": "string"
        }
      ],
      "name": "setNameForAddr",
      "outputs": [
        {
          "internalType": "bytes32",
          "name": "",
          "type": "bytes32"
        }
      ],
      "stateMutability": "nonpayable",
      "type": "function"
    },
    {
      "inputs": [
        {
          "internalType": "address",
          "name": "newOwner",
          "type": "address"
        }
      ],
      "name": "transferOwnership",
      "outputs": [],
      "stateMutability": "nonpayable",
      "type": "function"
    }
  ],
  "transactionHash": "0xcdf4339f6990624d1ca98b1f8f82a0d134ee40144dd116867b017b0def200560",
  "args": [
    "0x0000000000Ec577Ad90e99CA7817e976e953C3bd"
  ],
  "numDeployments": 1,
  "solcInputHash": "94c511ccef30681c8028349b05f9c84f",
  "bytecode": "0x60a060405234801561001057600080fd5b5060405162000f6938038062000f69833981016040819052610031916101b6565b61003a3361014e565b6001600160a01b03811660808190526040516302571be360e01b81527f91d1777781884d03a6757a803996e38de2a42967fb37eeaca72729271025a9e26004820152600091906302571be390602401602060405180830381865afa1580156100a6573d6000803e3d6000fd5b505050506040513d601f19601f820116820180604052508101906100ca91906101b6565b90506001600160a01b0381161561014757604051630f41a04d60e11b81523360048201526001600160a01b03821690631e83409a906024016020604051808303816000875af1158015610121573d6000803e3d6000fd5b505050506040513d601f19601f8201168201806040525081019061014591906101da565b505b50506101f3565b600080546001600160a01b038381166001600160a01b0319831681178455604051919092169283917f8be0079c531659141344cd1fd0a4f28419497f9722a3daafe3b4186f6b6457e09190a35050565b6001600160a01b03811681146101b357600080fd5b50565b6000602082840312156101c857600080fd5b81516101d38161019e565b9392505050565b6000602082840312156101ec57600080fd5b5051919050565b608051610d4c6200021d60003960008181610199015281816102f001526105070152610d4c6000f3fe608060405234801561001057600080fd5b50600436106100ea5760003560e01c8063b382e4c51161008c578063c66485b211610066578063c66485b2146101e1578063da8c229e146101f4578063e0dba60f14610227578063f2fde38b1461023a57600080fd5b8063b382e4c514610194578063bffbe61c146101bb578063c47f0027146101ce57600080fd5b8063715018a6116100c8578063715018a61461013b5780637a806d6b14610145578063828eab0e146101585780638da5cb5b1461018357600080fd5b80630f5a5466146100ef5780631e83409a146101155780636566963114610128575b600080fd5b6101026100fd366004610a3b565b61024d565b6040519081526020015b60405180910390f35b610102610123366004610a74565b610261565b610102610136366004610a91565b610283565b61014361056e565b005b610102610153366004610b98565b610582565b60025461016b906001600160a01b031681565b6040516001600160a01b03909116815260200161010c565b6000546001600160a01b031661016b565b61016b7f000000000000000000000000000000000000000000000000000000000000000081565b6101026101c9366004610a74565b610616565b6101026101dc366004610c0d565b610671565b6101436101ef366004610a74565b61068e565b610217610202366004610a74565b60016020526000908152604090205460ff1681565b604051901515815260200161010c565b610143610235366004610c58565b610774565b610143610248366004610a74565b6107db565b600061025a338484610283565b9392505050565b60025460009061027d90339084906001600160a01b0316610283565b92915050565b6000836001600160a01b0381163314806102ac57503360009081526001602052604090205460ff165b8061035b57506040517fe985e9c50000000000000000000000000000000000000000000000000000000081526001600160a01b0382811660048301523360248301527f0000000000000000000000000000000000000000000000000000000000000000169063e985e9c590604401602060405180830381865afa158015610337573d6000803e3d6000fd5b505050506040513d601f19601f8201168201806040525081019061035b9190610c86565b8061036a575061036a8161086b565b6104075760405162461bcd60e51b815260206004820152605b60248201527f526576657273655265676973747261723a2043616c6c6572206973206e6f742060448201527f6120636f6e74726f6c6c6572206f7220617574686f726973656420627920616460648201527f6472657373206f7220746865206164647265737320697473656c660000000000608482015260a4015b60405180910390fd5b6000610412866108e4565b604080517f91d1777781884d03a6757a803996e38de2a42967fb37eeaca72729271025a9e2602080830191909152818301849052825180830384018152606090920192839052815191012091925081906001600160a01b038916907f6ada868dd3058cf77a48a74489fd7963688e5464b2b0fa957ace976243270e9290600090a36040517f5ef2c7f00000000000000000000000000000000000000000000000000000000081527f91d1777781884d03a6757a803996e38de2a42967fb37eeaca72729271025a9e26004820152602481018390526001600160a01b0387811660448301528681166064830152600060848301527f00000000000000000000000000000000000000000000000000000000000000001690635ef2c7f09060a401600060405180830381600087803b15801561054b57600080fd5b505af115801561055f573d6000803e3d6000fd5b50929998505050505050505050565b610576610964565b61058060006109be565b565b600080610590868686610283565b6040517f773722130000000000000000000000000000000000000000000000000000000081529091506001600160a01b038516906377372213906105da9084908790600401610ca3565b600060405180830381600087803b1580156105f457600080fd5b505af1158015610608573d6000803e3d6000fd5b509298975050505050505050565b60007f91d1777781884d03a6757a803996e38de2a42967fb37eeaca72729271025a9e2610642836108e4565b604080516020810193909352820152606001604051602081830303815290604052805190602001209050919050565b60025460009061027d90339081906001600160a01b031685610582565b610696610964565b6001600160a01b0381166107125760405162461bcd60e51b815260206004820152603060248201527f526576657273655265676973747261723a205265736f6c76657220616464726560448201527f7373206d757374206e6f7420626520300000000000000000000000000000000060648201526084016103fe565b600280547fffffffffffffffffffffffff0000000000000000000000000000000000000000166001600160a01b0383169081179091556040517feae17a84d9eb83d8c8eb317f9e7d64857bc363fa51674d996c023f4340c577cf90600090a250565b61077c610964565b6001600160a01b038216600081815260016020908152604091829020805460ff191685151590811790915591519182527f4c97694570a07277810af7e5669ffd5f6a2d6b74b6e9a274b8b870fd5114cf87910160405180910390a25050565b6107e3610964565b6001600160a01b03811661085f5760405162461bcd60e51b815260206004820152602660248201527f4f776e61626c653a206e6577206f776e657220697320746865207a65726f206160448201527f646472657373000000000000000000000000000000000000000000000000000060648201526084016103fe565b610868816109be565b50565b6000816001600160a01b0316638da5cb5b6040518163ffffffff1660e01b8152600401602060405180830381865afa9250505080156108c7575060408051601f3d908101601f191682019092526108c491810190610cf9565b60015b6108d357506000919050565b6001600160a01b0316331492915050565b600060285b801561095857600019017f3031323334353637383961626364656600000000000000000000000000000000600f84161a8153601090920491600019017f3031323334353637383961626364656600000000000000000000000000000000600f84161a81536010830492506108e9565b50506028600020919050565b6000546001600160a01b031633146105805760405162461bcd60e51b815260206004820181905260248201527f4f776e61626c653a2063616c6c6572206973206e6f7420746865206f776e657260448201526064016103fe565b600080546001600160a01b038381167fffffffffffffffffffffffff0000000000000000000000000000000000000000831681178455604051919092169283917f8be0079c531659141344cd1fd0a4f28419497f9722a3daafe3b4186f6b6457e09190a35050565b6001600160a01b038116811461086857600080fd5b60008060408385031215610a4e57600080fd5b8235610a5981610a26565b91506020830135610a6981610a26565b809150509250929050565b600060208284031215610a8657600080fd5b813561025a81610a26565b600080600060608486031215610aa657600080fd5b8335610ab181610a26565b92506020840135610ac181610a26565b91506040840135610ad181610a26565b809150509250925092565b7f4e487b7100000000000000000000000000000000000000000000000000000000600052604160045260246000fd5b600082601f830112610b1c57600080fd5b813567ffffffffffffffff80821115610b3757610b37610adc565b604051601f8301601f19908116603f01168101908282118183101715610b5f57610b5f610adc565b81604052838152866020858801011115610b7857600080fd5b836020870160208301376000602085830101528094505050505092915050565b60008060008060808587031215610bae57600080fd5b8435610bb981610a26565b93506020850135610bc981610a26565b92506040850135610bd981610a26565b9150606085013567ffffffffffffffff811115610bf557600080fd5b610c0187828801610b0b565b91505092959194509250565b600060208284031215610c1f57600080fd5b813567ffffffffffffffff811115610c3657600080fd5b610c4284828501610b0b565b949350505050565b801515811461086857600080fd5b60008060408385031215610c6b57600080fd5b8235610c7681610a26565b91506020830135610a6981610c4a565b600060208284031215610c9857600080fd5b815161025a81610c4a565b82815260006020604081840152835180604085015260005b81811015610cd757858101830151858201606001528201610cbb565b506000606082860101526060601f19601f830116850101925050509392505050565b600060208284031215610d0b57600080fd5b815161025a81610a2656fea2646970667358221220c7819d8133e3dde6f20ea5b4b7e66af230c1a143f32c00311a5a9f98114fe6c364736f6c63430008110033",
  "devdoc": {
    "kind": "dev",
    "methods": {
      "claim(address)": {
        "details": "Transfers ownership of the reverse FNS record associated with the      calling account.",
        "params": {
          "owner": "The address to set as the owner of the reverse record in FNS."
        },
        "returns": {
          "_0": "The FNS node hash of the reverse record."
        }
      },
      "claimForAddr(address,address,address)": {
        "details": "Transfers ownership of the reverse FNS record associated with the      calling account.",
        "params": {
          "addr": "The reverse record to set",
          "owner": "The address to set as the owner of the reverse record in FNS.",
          "resolver": "The resolver of the reverse node"
        },
        "returns": {
          "_0": "The FNS node hash of the reverse record."
        }
      },
      "claimWithResolver(address,address)": {
        "details": "Transfers ownership of the reverse FNS record associated with the      calling account.",
        "params": {
          "owner": "The address to set as the owner of the reverse record in FNS.",
          "resolver": "The address of the resolver to set; 0 to leave unchanged."
        },
        "returns": {
          "_0": "The FNS node hash of the reverse record."
        }
      },
      "constructor": {
        "details": "Constructor",
        "params": {
          "fnsAddr": "The address of the FNS registry."
        }
      },
      "node(address)": {
        "details": "Returns the node hash for a given account's reverse records.",
        "params": {
          "addr": "The address to hash"
        },
        "returns": {
          "_0": "The FNS node hash."
        }
      },
      "owner()": {
        "details": "Returns the address of the current owner."
      },
      "renounceOwnership()": {
        "details": "Leaves the contract without owner. It will not be possible to call `onlyOwner` functions anymore. Can only be called by the current owner. NOTE: Renouncing ownership will leave the contract without an owner, thereby removing any functionality that is only available to the owner."
      },
      "setName(string)": {
        "details": "Sets the `name()` record for the reverse FNS record associated with the calling account. First updates the resolver to the default reverse resolver if necessary.",
        "params": {
          "name": "The name to set for this address."
        },
        "returns": {
          "_0": "The FNS node hash of the reverse record."
        }
      },
      "setNameForAddr(address,address,address,string)": {
        "details": "Sets the `name()` record for the reverse FNS record associated with the account provided. Updates the resolver to a designated resolver Only callable by controllers and authorised users",
        "params": {
          "addr": "The reverse record to set",
          "name": "The name to set for this address.",
          "owner": "The owner of the reverse node",
          "resolver": "The resolver of the reverse node"
        },
        "returns": {
          "_0": "The FNS node hash of the reverse record."
        }
      },
      "transferOwnership(address)": {
        "details": "Transfers ownership of the contract to a new account (`newOwner`). Can only be called by the current owner."
      }
    },
    "version": 1
  },
  "userdoc": {
    "kind": "user",
    "methods": {},
    "version": 1
  },
  "storageLayout": {
    "storage": [
      {
        "astId": 7,
        "contract": "contracts/reverseRegistrar/ReverseRegistrar.sol:ReverseRegistrar",
        "label": "_owner",
        "offset": 0,
        "slot": "0",
        "type": "t_address"
      },
      {
        "astId": 19880,
        "contract": "contracts/reverseRegistrar/ReverseRegistrar.sol:ReverseRegistrar",
        "label": "controllers",
        "offset": 0,
        "slot": "1",
        "type": "t_mapping(t_address,t_bool)"
      },
      {
        "astId": 19552,
        "contract": "contracts/reverseRegistrar/ReverseRegistrar.sol:ReverseRegistrar",
        "label": "defaultResolver",
        "offset": 0,
        "slot": "2",
        "type": "t_contract(NameResolver)19534"
      }
    ],
    "types": {
      "t_address": {
        "encoding": "inplace",
        "label": "address",
        "numberOfBytes": "20"
      },
      "t_bool": {
        "encoding": "inplace",
        "label": "bool",
        "numberOfBytes": "1"
      },
      "t_contract(NameResolver)19534": {
        "encoding": "inplace",
        "label": "contract NameResolver",
        "numberOfBytes": "20"
      },
      "t_mapping(t_address,t_bool)": {
        "encoding": "mapping",
        "key": "t_address",
        "label": "mapping(address => bool)",
        "numberOfBytes": "32",
        "value": "t_bool"
      }
    }
  }
}