{
  "address": "0xc46fFfcD824d87964C984c382c1EA077cBCAD025",
  "abi": [
    {
      "inputs": [
        {
          "internalType": "address",
          "name": "_previousRegistrar",
          "type": "address"
        },
        {
          "internalType": "address",
          "name": "_resolver",
          "type": "address"
        },
        {
          "internalType": "contract DNSSEC",
          "name": "_dnssec",
          "type": "address"
        },
        {
          "internalType": "contract PublicSuffixList",
          "name": "_suffixes",
          "type": "address"
        },
        {
          "internalType": "contract FNS",
          "name": "_fns",
          "type": "address"
        }
      ],
      "stateMutability": "nonpayable",
      "type": "constructor"
    },
    {
      "inputs": [
        {
          "internalType": "bytes",
          "name": "name",
          "type": "bytes"
        }
      ],
      "name": "InvalidPublicSuffix",
      "type": "error"
    },
    {
      "inputs": [],
      "name": "NoOwnerRecordFound",
      "type": "error"
    },
    {
      "inputs": [
        {
          "internalType": "address",
          "name": "caller",
          "type": "address"
        },
        {
          "internalType": "address",
          "name": "owner",
          "type": "address"
        }
      ],
      "name": "PermissionDenied",
      "type": "error"
    },
    {
      "inputs": [],
      "name": "PreconditionNotMet",
      "type": "error"
    },
    {
      "inputs": [],
      "name": "StaleProof",
      "type": "error"
    },
    {
      "anonymous": false,
      "inputs": [
        {
          "indexed": true,
          "internalType": "bytes32",
          "name": "node",
          "type": "bytes32"
        },
        {
          "indexed": true,
          "internalType": "address",
          "name": "owner",
          "type": "address"
        },
        {
          "indexed": false,
          "internalType": "bytes",
          "name": "dnsname",
          "type": "bytes"
        },
        {
          "indexed": false,
          "internalType": "uint32",
          "name": "inception",
          "type": "uint32"
        }
      ],
      "name": "Claim",
      "type": "event"
    },
    {
      "anonymous": false,
      "inputs": [
        {
          "indexed": false,
          "internalType": "address",
          "name": "suffixes",
          "type": "address"
        }
      ],
      "name": "NewPublicSuffixList",
      "type": "event"
    },
    {
      "inputs": [
        {
          "internalType": "bytes",
          "name": "domain",
          "type": "bytes"
        }
      ],
      "name": "enableNode",
      "outputs": [
        {
          "internalType": "bytes32",
          "name": "node",
          "type": "bytes32"
        }
      ],
      "stateMutability": "nonpayable",
      "type": "function"
    },
    {
      "inputs": [],
      "name": "fns",
      "outputs": [
        {
          "internalType": "contract FNS",
          "name": "",
          "type": "address"
        }
      ],
      "stateMutability": "view",
      "type": "function"
    },
    {
      "inputs": [
        {
          "internalType": "bytes32",
          "name": "",
          "type": "bytes32"
        }
      ],
      "name": "inceptions",
      "outputs": [
        {
          "internalType": "uint32",
          "name": "",
          "type": "uint32"
        }
      ],
      "stateMutability": "view",
      "type": "function"
    },
    {
      "inputs": [],
      "name": "oracle",
      "outputs": [
        {
          "internalType": "contract DNSSEC",
          "name": "",
          "type": "address"
        }
      ],
      "stateMutability": "view",
      "type": "function"
    },
    {
      "inputs": [],
      "name": "previousRegistrar",
      "outputs": [
        {
          "internalType": "address",
          "name": "",
          "type": "address"
        }
      ],
      "stateMutability": "view",
      "type": "function"
    },
    {
      "inputs": [
        {
          "internalType": "bytes",
          "name": "name",
          "type": "bytes"
        },
        {
          "components": [
            {
              "internalType": "bytes",
              "name": "rrset",
              "type": "bytes"
            },
            {
              "internalType": "bytes",
              "name": "sig",
              "type": "bytes"
            }
          ],
          "internalType": "struct DNSSEC.RRSetWithSignature[]",
          "name": "input",
          "type": "tuple[]"
        }
      ],
      "name": "proveAndClaim",
      "outputs": [],
      "stateMutability": "nonpayable",
      "type": "function"
    },
    {
      "inputs": [
        {
          "internalType": "bytes",
          "name": "name",
          "type": "bytes"
        },
        {
          "components": [
            {
              "internalType": "bytes",
              "name": "rrset",
              "type": "bytes"
            },
            {
              "internalType": "bytes",
              "name": "sig",
              "type": "bytes"
            }
          ],
          "internalType": "struct DNSSEC.RRSetWithSignature[]",
          "name": "input",
          "type": "tuple[]"
        },
        {
          "internalType": "address",
          "name": "_resolver",
          "type": "address"
        },
        {
          "internalType": "address",
          "name": "addr",
          "type": "address"
        }
      ],
      "name": "proveAndClaimWithResolver",
      "outputs": [],
      "stateMutability": "nonpayable",
      "type": "function"
    },
    {
      "inputs": [],
      "name": "resolver",
      "outputs": [
        {
          "internalType": "address",
          "name": "",
          "type": "address"
        }
      ],
      "stateMutability": "view",
      "type": "function"
    },
    {
      "inputs": [
        {
          "internalType": "contract PublicSuffixList",
          "name": "_suffixes",
          "type": "address"
        }
      ],
      "name": "setPublicSuffixList",
      "outputs": [],
      "stateMutability": "nonpayable",
      "type": "function"
    },
    {
      "inputs": [],
      "name": "suffixes",
      "outputs": [
        {
          "internalType": "contract PublicSuffixList",
          "name": "",
          "type": "address"
        }
      ],
      "stateMutability": "view",
      "type": "function"
    },
    {
      "inputs": [
        {
          "internalType": "bytes4",
          "name": "interfaceID",
          "type": "bytes4"
        }
      ],
      "name": "supportsInterface",
      "outputs": [
        {
          "internalType": "bool",
          "name": "",
          "type": "bool"
        }
      ],
      "stateMutability": "pure",
      "type": "function"
    }
  ],
  "transactionHash": "0x4df5dd7d4972d812b815195981314b0eb7c1889b766205081eda1759733d6550",
  "args": [
    "0x0000000000000000000000000000000000000000",
    "0x4e664Fb2410CD1A3D74105dB40d81D8a399187CB",
    "0xd145C2A6fA446dc2345b6e56D1362b6178449F2e",
    "0xeb25bc4CeFAc9f4C21E5f763d7c41290D00Caf56",
    "0x0000000000Ec577Ad90e99CA7817e976e953C3bd"
  ],
  "numDeployments": 1,
  "solcInputHash": "94c511ccef30681c8028349b05f9c84f",
  "bytecode": "0x6101006040523480156200001257600080fd5b5060405162001e2938038062001e298339810160408190526200003591620000c8565b6001600160a01b0385811660c05284811660e05283811660a052600080546001600160a01b03191691841691821790556040519081527f9176b7f47e4504df5e5516c99d90d82ac7cbd49cc77e7f22ba2ac2f2e3a3eba89060200160405180910390a16001600160a01b0316608052506200014892505050565b6001600160a01b0381168114620000c557600080fd5b50565b600080600080600060a08688031215620000e157600080fd5b8551620000ee81620000af565b60208701519095506200010181620000af565b60408701519094506200011481620000af565b60608701519093506200012781620000af565b60808701519092506200013a81620000af565b809150509295509295909350565b60805160a05160c05160e051611c5b620001ce6000396000818160fb01528181610cde0152610d9501526000818161020b0152610b630152600081816101e4015261080201526000818161023201528181610397015281816104f8015281816106b301528181610ae301528181610bba01528181610d060152610dc40152611c5b6000f3fe608060405234801561001057600080fd5b50600436106100c95760003560e01c806329d56630116100815780637dc0d1d01161005b5780637dc0d1d0146101df578063ab14ec5914610206578063b382e4c51461022d57600080fd5b806329d566301461019857806330349ebe146101ab5780636f951221146101be57600080fd5b806306963218116100b257806306963218146101355780631ecfc4111461014a57806325916d411461015d57600080fd5b806301ffc9a7146100ce57806304f3bcec146100f6575b600080fd5b6100e16100dc3660046115eb565b610254565b60405190151581526020015b60405180910390f35b61011d7f000000000000000000000000000000000000000000000000000000000000000081565b6040516001600160a01b0390911681526020016100ed565b61014861014336600461182d565b6102ed565b005b6101486101583660046118b6565b6104df565b61018361016b3660046118d3565b60016020526000908152604090205463ffffffff1681565b60405163ffffffff90911681526020016100ed565b6101486101a63660046118ec565b610656565b60005461011d906001600160a01b031681565b6101d16101cc366004611950565b61072a565b6040519081526020016100ed565b61011d7f000000000000000000000000000000000000000000000000000000000000000081565b61011d7f000000000000000000000000000000000000000000000000000000000000000081565b61011d7f000000000000000000000000000000000000000000000000000000000000000081565b60007fffffffff0000000000000000000000000000000000000000000000000000000082167f01ffc9a70000000000000000000000000000000000000000000000000000000014806102e757507fffffffff0000000000000000000000000000000000000000000000000000000082167f2f43542800000000000000000000000000000000000000000000000000000000145b92915050565b60008060006102fc87876107f8565b91945092509050336001600160a01b0382161461035b576040517fe03f60240000000000000000000000000000000000000000000000000000000081523360048201526001600160a01b03821660248201526044015b60405180910390fd5b6040516305ef2c7f60e41b815260048101849052602481018390526001600160a01b0382811660448301528681166064830152600060848301527f00000000000000000000000000000000000000000000000000000000000000001690635ef2c7f09060a401600060405180830381600087803b1580156103db57600080fd5b505af11580156103ef573d6000803e3d6000fd5b505050506001600160a01b038416156104d6576001600160a01b03851661042957604051633c584f1360e21b815260040160405180910390fd5b604080516020810185905290810183905260009060600160408051808303601f190181529082905280516020909101207fd5fa2b00000000000000000000000000000000000000000000000000000000008252600482018190526001600160a01b03878116602484015290925087169063d5fa2b0090604401600060405180830381600087803b1580156104bc57600080fd5b505af11580156104d0573d6000803e3d6000fd5b50505050505b50505050505050565b6040516302571be360e01b8152600060048201819052907f00000000000000000000000000000000000000000000000000000000000000006001600160a01b0316906302571be390602401602060405180830381865afa158015610547573d6000803e3d6000fd5b505050506040513d601f19601f8201168201806040525081019061056b9190611985565b90506000816001600160a01b0316638da5cb5b6040518163ffffffff1660e01b8152600401602060405180830381865afa1580156105ad573d6000803e3d6000fd5b505050506040513d601f19601f820116820180604052508101906105d19190611985565b9050336001600160a01b038216146105e857600080fd5b600080547fffffffffffffffffffffffff0000000000000000000000000000000000000000166001600160a01b0385169081179091556040519081527f9176b7f47e4504df5e5516c99d90d82ac7cbd49cc77e7f22ba2ac2f2e3a3eba89060200160405180910390a1505050565b600080600061066585856107f8565b6040517f06ab592300000000000000000000000000000000000000000000000000000000815260048101849052602481018390526001600160a01b03828116604483015293965091945092507f0000000000000000000000000000000000000000000000000000000000000000909116906306ab5923906064016020604051808303816000875af11580156106fe573d6000803e3d6000fd5b505050506040513d601f19601f8201168201806040525081019061072291906119a2565b505050505050565b600080546040517f4f89059e0000000000000000000000000000000000000000000000000000000081526001600160a01b0390911690634f89059e90610774908590600401611a0b565b602060405180830381865afa158015610791573d6000803e3d6000fd5b505050506040513d601f19601f820116820180604052508101906107b59190611a1e565b6107ed57816040517f396e24b80000000000000000000000000000000000000000000000000000000081526004016103529190611a0b565b6102e7826000610a35565b60008060008060007f00000000000000000000000000000000000000000000000000000000000000006001600160a01b031663bdf95fef876040518263ffffffff1660e01b815260040161084c9190611a40565b600060405180830381865afa158015610869573d6000803e3d6000fd5b505050506040513d6000823e601f3d908101601f191682016040526108919190810190611ac5565b909250905060006108a28882610e58565b60ff1690506108b388600183610e7c565b945060006108e66108c5836001611b72565b6001848c516108d49190611b85565b6108de9190611b85565b8b9190610ea0565b90506108f18161072a565b965060008787604051602001610911929190918252602082015260400190565b60408051808303601f190181529181528151602092830120600081815260019093529082205490925063ffffffff16850360030b121561097d576040517f2dd6a7af00000000000000000000000000000000000000000000000000000000815260040160405180910390fd5b6000818152600160205260408120805463ffffffff191663ffffffff87161790556109a88b87610f22565b9097509050806109e4576040517f6260f6f800000000000000000000000000000000000000000000000000000000815260040160405180910390fd5b866001600160a01b0316827f87db02a0e483e2818060eddcbb3488ce44e35aff49a70d92c2aa6c8046cf01e28d88604051610a20929190611b98565b60405180910390a35050505050509250925092565b600080610a428484610e58565b60ff16905080600003610a595750600090506102e7565b6000610a7985610a698487611b72565b610a74906001611b72565b610a35565b90506000610a93610a8b866001611b72565b879085610e7c565b604080516020810185905290810182905290915060600160408051601f198184030181529082905280516020909101206302571be360e01b82526004820181905294506000906001600160a01b037f000000000000000000000000000000000000000000000000000000000000000016906302571be390602401602060405180830381865afa158015610b2a573d6000803e3d6000fd5b505050506040513d601f19601f82011682018060405250810190610b4e9190611985565b90506001600160a01b0381161580610b9757507f00000000000000000000000000000000000000000000000000000000000000006001600160a01b0316816001600160a01b0316145b15610e255782610d6a576040516302571be360e01b8152600060048201819052907f00000000000000000000000000000000000000000000000000000000000000006001600160a01b0316906302571be390602401602060405180830381865afa158015610c09573d6000803e3d6000fd5b505050506040513d601f19601f82011682018060405250810190610c2d9190611985565b6040517f8cb8ecec000000000000000000000000000000000000000000000000000000008152600481018590523060248201529091506001600160a01b03821690638cb8ecec90604401600060405180830381600087803b158015610c9157600080fd5b505af1158015610ca5573d6000803e3d6000fd5b50506040517f1896f70a000000000000000000000000000000000000000000000000000000008152600481018990526001600160a01b037f0000000000000000000000000000000000000000000000000000000000000000811660248301527f0000000000000000000000000000000000000000000000000000000000000000169250631896f70a9150604401600060405180830381600087803b158015610d4c57600080fd5b505af1158015610d60573d6000803e3d6000fd5b5050505050610e4e565b6040516305ef2c7f60e41b815260048101849052602481018390523060448201526001600160a01b037f000000000000000000000000000000000000000000000000000000000000000081166064830152600060848301527f00000000000000000000000000000000000000000000000000000000000000001690635ef2c7f09060a401600060405180830381600087803b158015610e0857600080fd5b505af1158015610e1c573d6000803e3d6000fd5b50505050610e4e565b6001600160a01b0381163014610e4e57604051633c584f1360e21b815260040160405180910390fd5b5050505092915050565b6000828281518110610e6c57610e6c611bc0565b016020015160f81c905092915050565b8251600090610e8b8385611b72565b1115610e9657600080fd5b5091016020012090565b8251606090610eaf8385611b72565b1115610eba57600080fd5b60008267ffffffffffffffff811115610ed557610ed561162d565b6040519080825280601f01601f191660200182016040528015610eff576020820181803683370190505b50905060208082019086860101610f17828287611013565b509095945050505050565b600080610f42604051806040016040528060608152602001600081525090565b610f5a85516005610f539190611b72565b8290611069565b5060408051808201909152600581527f045f656e730000000000000000000000000000000000000000000000000000006020820152610f9a9082906110ce565b50610fa581866110ce565b506000610fb285826110fc565b90505b8051516020820151101561100257600080610fd9878460a001518560c0015161115d565b925090508115610ff25794506001935061100c92505050565b5050610ffd816111d0565b610fb5565b5060008092509250505b9250929050565b6020811061104b578151835261102a602084611b72565b9250611037602083611b72565b9150611044602082611b85565b9050611013565b905182516020929092036101000a6000190180199091169116179052565b604080518082019091526060815260006020820152611089602083611bd6565b156110b157611099602083611bd6565b6110a4906020611b85565b6110ae9083611b72565b91505b506020828101829052604080518085526000815290920101905290565b6040805180820190915260608152600060208201526110f5838460000151518485516112b8565b9392505050565b61114a6040518060e001604052806060815260200160008152602001600061ffff168152602001600061ffff168152602001600063ffffffff16815260200160008152602001600081525090565b82815260c081018290526102e7816111d0565b6000805b828410156111c15760006111758686610e58565b60ff169050611185600186611b72565b94506000806111958888856113a2565b9250905081156111ad579350600192506111c8915050565b6111b78388611b72565b9650505050611161565b5060009050805b935093915050565b60c081015160208201819052815151116111e75750565b60006111fb826000015183602001516113f6565b826020015161120a9190611b72565b82519091506112199082611458565b61ffff16604083015261122d600282611b72565b825190915061123c9082611458565b61ffff166060830152611250600282611b72565b825190915061125f9082611480565b63ffffffff166080830152611275600482611b72565b82519091506000906112879083611458565b61ffff169050611298600283611b72565b60a0840181905291506112ab8183611b72565b60c0909301929092525050565b60408051808201909152606081526000602082015282518211156112db57600080fd5b60208501516112ea8386611b72565b111561131d5761131d8561130d876020015187866113089190611b72565b6114aa565b611318906002611bf8565b6114c1565b60008086518051876020830101935080888701111561133c5787860182525b505050602084015b6020841061137c578051825261135b602083611b72565b9150611368602082611b72565b9050611375602085611b85565b9350611344565b51815160001960208690036101000a019081169019919091161790525083949350505050565b6000806113af8585611480565b63ffffffff1663613d3078146113ca575060009050806111c8565b6113ea6113d8856004611b72565b6113e28587611b72565b8791906114de565b91509150935093915050565b6000815b8351811061140a5761140a611c0f565b60006114168583610e58565b60ff169050611426816001611b72565b6114309083611b72565b9150806000036114405750611446565b506113fa565b6114508382611b85565b949350505050565b8151600090611468836002611b72565b111561147357600080fd5b50016002015161ffff1690565b8151600090611490836004611b72565b111561149b57600080fd5b50016004015163ffffffff1690565b6000818311156114bb5750816102e7565b50919050565b81516114cd8383611069565b506114d883826110ce565b50505050565b60008060286114ed8585611b85565b10156114fe575060009050806111c8565b60008061150c87878761151a565b909890975095505050505050565b825160009060019083111561152e57600080fd5b61157f565b6000603a8210602f8311161561154b5750602f190190565b6047821060408311161561156157506036190190565b6067821060608311161561157757506056190190565b5060ff919050565b60208501845b848110156115e15761159c8183015160001a611533565b6115ae6001830184015160001a611533565b60ff811460ff831417156115c7576000945050506115e1565b60049190911b1760089490941b9390931792600201611585565b5050935093915050565b6000602082840312156115fd57600080fd5b81357fffffffff00000000000000000000000000000000000000000000000000000000811681146110f557600080fd5b634e487b7160e01b600052604160045260246000fd5b6040805190810167ffffffffffffffff811182821017156116665761166661162d565b60405290565b604051601f8201601f1916810167ffffffffffffffff811182821017156116955761169561162d565b604052919050565b600067ffffffffffffffff8211156116b7576116b761162d565b50601f01601f191660200190565b600082601f8301126116d657600080fd5b81356116e96116e48261169d565b61166c565b8181528460208386010111156116fe57600080fd5b816020850160208301376000918101602001919091529392505050565b600082601f83011261172c57600080fd5b8135602067ffffffffffffffff808311156117495761174961162d565b8260051b61175883820161166c565b938452858101830193838101908886111561177257600080fd5b84880192505b85831015611809578235848111156117905760008081fd5b88016040818b03601f19018113156117a85760008081fd5b6117b0611643565b87830135878111156117c25760008081fd5b6117d08d8a838701016116c5565b8252509082013590868211156117e65760008081fd5b6117f48c89848601016116c5565b81890152845250509184019190840190611778565b98975050505050505050565b6001600160a01b038116811461182a57600080fd5b50565b6000806000806080858703121561184357600080fd5b843567ffffffffffffffff8082111561185b57600080fd5b611867888389016116c5565b9550602087013591508082111561187d57600080fd5b5061188a8782880161171b565b935050604085013561189b81611815565b915060608501356118ab81611815565b939692955090935050565b6000602082840312156118c857600080fd5b81356110f581611815565b6000602082840312156118e557600080fd5b5035919050565b600080604083850312156118ff57600080fd5b823567ffffffffffffffff8082111561191757600080fd5b611923868387016116c5565b9350602085013591508082111561193957600080fd5b506119468582860161171b565b9150509250929050565b60006020828403121561196257600080fd5b813567ffffffffffffffff81111561197957600080fd5b611450848285016116c5565b60006020828403121561199757600080fd5b81516110f581611815565b6000602082840312156119b457600080fd5b5051919050565b60005b838110156119d65781810151838201526020016119be565b50506000910152565b600081518084526119f78160208601602086016119bb565b601f01601f19169290920160200192915050565b6020815260006110f560208301846119df565b600060208284031215611a3057600080fd5b815180151581146110f557600080fd5b60006020808301818452808551808352604092508286019150828160051b87010184880160005b83811015611ab757888303603f1901855281518051878552611a8b888601826119df565b91890151858303868b0152919050611aa381836119df565b968901969450505090860190600101611a67565b509098975050505050505050565b60008060408385031215611ad857600080fd5b825167ffffffffffffffff811115611aef57600080fd5b8301601f81018513611b0057600080fd5b8051611b0e6116e48261169d565b818152866020838501011115611b2357600080fd5b611b348260208301602086016119bb565b809450505050602083015163ffffffff81168114611b5157600080fd5b809150509250929050565b634e487b7160e01b600052601160045260246000fd5b808201808211156102e7576102e7611b5c565b818103818111156102e7576102e7611b5c565b604081526000611bab60408301856119df565b905063ffffffff831660208301529392505050565b634e487b7160e01b600052603260045260246000fd5b600082611bf357634e487b7160e01b600052601260045260246000fd5b500690565b80820281158282048414176102e7576102e7611b5c565b634e487b7160e01b600052600160045260246000fdfea2646970667358221220499a9e929dea65b1acd3e20fbdbe26694bf81fd4aa31ed13c3b86469bd5f538b64736f6c63430008110033",
  "devdoc": {
    "details": "An FNS registrar that allows the owner of a DNS name to claim the      corresponding name in FNS.",
    "kind": "dev",
    "methods": {
      "proveAndClaim(bytes,(bytes,bytes)[])": {
        "details": "Submits proofs to the DNSSEC oracle, then claims a name using those proofs.",
        "params": {
          "input": "A chain of signed DNS RRSETs ending with a text record.",
          "name": "The name to claim, in DNS wire format."
        }
      }
    },
    "version": 1
  },
  "userdoc": {
    "kind": "user",
    "methods": {},
    "version": 1
  },
  "storageLayout": {
    "storage": [
      {
        "astId": 6285,
        "contract": "contracts/dnsregistrar/DNSRegistrar.sol:DNSRegistrar",
        "label": "suffixes",
        "offset": 0,
        "slot": "0",
        "type": "t_contract(PublicSuffixList)7505"
      },
      {
        "astId": 6293,
        "contract": "contracts/dnsregistrar/DNSRegistrar.sol:DNSRegistrar",
        "label": "inceptions",
        "offset": 0,
        "slot": "1",
        "type": "t_mapping(t_bytes32,t_uint32)"
      }
    ],
    "types": {
      "t_bytes32": {
        "encoding": "inplace",
        "label": "bytes32",
        "numberOfBytes": "32"
      },
      "t_contract(PublicSuffixList)7505": {
        "encoding": "inplace",
        "label": "contract PublicSuffixList",
        "numberOfBytes": "20"
      },
      "t_mapping(t_bytes32,t_uint32)": {
        "encoding": "mapping",
        "key": "t_bytes32",
        "label": "mapping(bytes32 => uint32)",
        "numberOfBytes": "32",
        "value": "t_uint32"
      },
      "t_uint32": {
        "encoding": "inplace",
        "label": "uint32",
        "numberOfBytes": "4"
      }
    }
  }
}