{
  "address": "0x9bFdFf147E855EABc256F6Ff789ef044F21178D8",
  "abi": [
    {
      "inputs": [
        {
          "internalType": "bytes",
          "name": "",
          "type": "bytes"
        },
        {
          "internalType": "bytes",
          "name": "",
          "type": "bytes"
        },
        {
          "internalType": "bytes",
          "name": "",
          "type": "bytes"
        }
      ],
      "name": "verify",
      "outputs": [
        {
          "internalType": "bool",
          "name": "",
          "type": "bool"
        }
      ],
      "stateMutability": "pure",
      "type": "function"
    }
  ],
  "transactionHash": "0x929867e01845f44d77587ad3720e211eb3bf1d1705375fa730882d69737622e8",
  "args": [],
  "numDeployments": 1,
  "solcInputHash": "94c511ccef30681c8028349b05f9c84f",
  "bytecode": "0x608060405234801561001057600080fd5b50610177806100206000396000f3fe608060405234801561001057600080fd5b506004361061002b5760003560e01c8063de8f50a114610030575b600080fd5b61004a61003e3660046100a7565b60019695505050505050565b604051901515815260200160405180910390f35b60008083601f84011261007057600080fd5b50813567ffffffffffffffff81111561008857600080fd5b6020830191508360208285010111156100a057600080fd5b9250929050565b600080600080600080606087890312156100c057600080fd5b863567ffffffffffffffff808211156100d857600080fd5b6100e48a838b0161005e565b909850965060208901359150808211156100fd57600080fd5b6101098a838b0161005e565b9096509450604089013591508082111561012257600080fd5b5061012f89828a0161005e565b979a969950949750929593949250505056fea2646970667358221220b8e392b8bdee7bcd8433e14d81c19d4d11796b13935f2083ad8737b90e0e7c4564736f6c63430008110033",
  "devdoc": {
    "details": "Implements a dummy DNSSEC (signing) algorithm that approves all      signatures, for testing.",
    "kind": "dev",
    "methods": {},
    "version": 1
  },
  "userdoc": {
    "kind": "user",
    "methods": {},
    "version": 1
  },
  "storageLayout": {
    "storage": [],
    "types": null
  }
}