{
  "address": "0x350509B731aEcBEa776599027659BC06c0A5EDE9",
  "abi": [
    {
      "inputs": [
        {
          "internalType": "bytes",
          "name": "",
          "type": "bytes"
        },
        {
          "internalType": "bytes",
          "name": "",
          "type": "bytes"
        }
      ],
      "name": "verify",
      "outputs": [
        {
          "internalType": "bool",
          "name": "",
          "type": "bool"
        }
      ],
      "stateMutability": "pure",
      "type": "function"
    }
  ],
  "transactionHash": "0x31b574bc8250f19193588c150e432dac284d33005c5892857f262830f7f546d5",
  "args": [],
  "numDeployments": 1,
  "solcInputHash": "94c511ccef30681c8028349b05f9c84f",
  "bytecode": "0x608060405234801561001057600080fd5b50610147806100206000396000f3fe608060405234801561001057600080fd5b506004361061002b5760003560e01c8063f7e83aee14610030575b600080fd5b61004861003e3660046100a5565b6001949350505050565b604051901515815260200160405180910390f35b60008083601f84011261006e57600080fd5b50813567ffffffffffffffff81111561008657600080fd5b60208301915083602082850101111561009e57600080fd5b9250929050565b600080600080604085870312156100bb57600080fd5b843567ffffffffffffffff808211156100d357600080fd5b6100df8883890161005c565b909650945060208701359150808211156100f857600080fd5b506101058782880161005c565b9598949750955050505056fea26469706673582212201ccd9c6eef187d935262bba5860655b3a4f718fad1839c448fd2af1f0ab2b49b64736f6c63430008110033",
  "devdoc": {
    "details": "Implements a dummy DNSSEC digest that approves all hashes, for testing.",
    "kind": "dev",
    "methods": {},
    "version": 1
  },
  "userdoc": {
    "kind": "user",
    "methods": {},
    "version": 1
  },
  "storageLayout": {
    "storage": [],
    "types": null
  }
}