{
  "address": "0x562a982b9B0cBFbD032478db6242f35012B70002",
  "abi": [
    {
      "inputs": [
        {
          "internalType": "contract FNS",
          "name": "_fns",
          "type": "address"
        }
      ],
      "stateMutability": "nonpayable",
      "type": "constructor"
    },
    {
      "inputs": [],
      "name": "fns",
      "outputs": [
        {
          "internalType": "contract FNS",
          "name": "",
          "type": "address"
        }
      ],
      "stateMutability": "view",
      "type": "function"
    },
    {
      "inputs": [
        {
          "internalType": "string[]",
          "name": "names",
          "type": "string[]"
        },
        {
          "internalType": "uint256",
          "name": "duration",
          "type": "uint256"
        }
      ],
      "name": "renewAll",
      "outputs": [],
      "stateMutability": "payable",
      "type": "function"
    },
    {
      "inputs": [
        {
          "internalType": "string[]",
          "name": "names",
          "type": "string[]"
        },
        {
          "internalType": "uint256",
          "name": "duration",
          "type": "uint256"
        }
      ],
      "name": "rentPrice",
      "outputs": [
        {
          "internalType": "uint256",
          "name": "total",
          "type": "uint256"
        },
        {
          "internalType": "uint256",
          "name": "totalFns",
          "type": "uint256"
        }
      ],
      "stateMutability": "view",
      "type": "function"
    },
    {
      "inputs": [
        {
          "internalType": "bytes4",
          "name": "interfaceID",
          "type": "bytes4"
        }
      ],
      "name": "supportsInterface",
      "outputs": [
        {
          "internalType": "bool",
          "name": "",
          "type": "bool"
        }
      ],
      "stateMutability": "pure",
      "type": "function"
    }
  ],
  "transactionHash": "0x70423f8b15b1778018749031124b02bd28d383ceb34ba07f5b8643c7212f14cb",
  "args": [
    "0x0000000000Ec577Ad90e99CA7817e976e953C3bd"
  ],
  "numDeployments": 1,
  "solcInputHash": "94c511ccef30681c8028349b05f9c84f",
  "bytecode": "0x60a060405234801561001057600080fd5b506040516108ce3803806108ce83398101604081905261002f91610040565b6001600160a01b0316608052610070565b60006020828403121561005257600080fd5b81516001600160a01b038116811461006957600080fd5b9392505050565b60805161083d6100916000396000818160c00152610481015261083d6000f3fe60806040526004361061003f5760003560e01c806301ffc9a7146100445780633971d46714610079578063b382e4c5146100ae578063e8d6dbb4146100fa575b600080fd5b34801561005057600080fd5b5061006461005f3660046105c4565b61010f565b60405190151581526020015b60405180910390f35b34801561008557600080fd5b5061009961009436600461060d565b6101a8565b60408051928352602083019190915201610070565b3480156100ba57600080fd5b506100e27f000000000000000000000000000000000000000000000000000000000000000081565b6040516001600160a01b039091168152602001610070565b61010d61010836600461060d565b61028b565b005b60007fffffffff0000000000000000000000000000000000000000000000000000000082167f01ffc9a70000000000000000000000000000000000000000000000000000000014806101a257507fffffffff0000000000000000000000000000000000000000000000000000000082167fd1a70fd300000000000000000000000000000000000000000000000000000000145b92915050565b60008060006101b561042e565b90508460005b81811015610280576000836001600160a01b03166383e7f6ff8a8a858181106101e6576101e6610688565b90506020028101906101f8919061069e565b8a6040518463ffffffff1660e01b8152600401610217939291906106ec565b608060405180830381865afa158015610234573d6000803e3d6000fd5b505050506040513d601f19601f820116820180604052508101906102589190610725565b60208101518151606083015160409093015191019790970196019490940193506001016101bb565b505050935093915050565b600061029561042e565b9050826000805b828110156103f8576000846001600160a01b03166383e7f6ff8989858181106102c7576102c7610688565b90506020028101906102d9919061069e565b896040518463ffffffff1660e01b81526004016102f8939291906106ec565b608060405180830381865afa158015610315573d6000803e3d6000fd5b505050506040513d601f19601f820116820180604052508101906103399190610725565b90506000816020015182600001516103519190610799565b9050856001600160a01b031663acf1a841828b8b8781811061037557610375610688565b9050602002810190610387919061069e565b8b6040518563ffffffff1660e01b81526004016103a6939291906106ec565b604080518083038185885af11580156103c3573d6000803e3d6000fd5b50505050506040513d601f19601f820116820180604052508101906103e891906107ba565b505092909201915060010161029c565b5060405133904780156108fc02916000818181858888f19350505050158015610425573d6000803e3d6000fd5b50505050505050565b6040517f0178b8bf0000000000000000000000000000000000000000000000000000000081527f78f6b1389af563cc5c91f234ea46b055e49658d8b999eeb9e0baef7dbbc93fdb600482015260009081907f00000000000000000000000000000000000000000000000000000000000000006001600160a01b031690630178b8bf90602401602060405180830381865afa1580156104d0573d6000803e3d6000fd5b505050506040513d601f19601f820116820180604052508101906104f491906107de565b6040517f124a319c0000000000000000000000000000000000000000000000000000000081527f78f6b1389af563cc5c91f234ea46b055e49658d8b999eeb9e0baef7dbbc93fdb60048201527f612e8c090000000000000000000000000000000000000000000000000000000060248201529091506001600160a01b0382169063124a319c90604401602060405180830381865afa15801561059a573d6000803e3d6000fd5b505050506040513d601f19601f820116820180604052508101906105be91906107de565b91505090565b6000602082840312156105d657600080fd5b81357fffffffff000000000000000000000000000000000000000000000000000000008116811461060657600080fd5b9392505050565b60008060006040848603121561062257600080fd5b833567ffffffffffffffff8082111561063a57600080fd5b818601915086601f83011261064e57600080fd5b81358181111561065d57600080fd5b8760208260051b850101111561067257600080fd5b6020928301989097509590910135949350505050565b634e487b7160e01b600052603260045260246000fd5b6000808335601e198436030181126106b557600080fd5b83018035915067ffffffffffffffff8211156106d057600080fd5b6020019150368190038213156106e557600080fd5b9250929050565b604081528260408201528284606083013760006060848301015260006060601f19601f8601168301019050826020830152949350505050565b60006080828403121561073757600080fd5b6040516080810181811067ffffffffffffffff8211171561076857634e487b7160e01b600052604160045260246000fd5b8060405250825181526020830151602082015260408301516040820152606083015160608201528091505092915050565b808201808211156101a257634e487b7160e01b600052601160045260246000fd5b600080604083850312156107cd57600080fd5b505080516020909101519092909150565b6000602082840312156107f057600080fd5b81516001600160a01b038116811461060657600080fdfea264697066735822122013c6a494e5923b42a578494e51dd24c083c93b7e3ef4b82f255001789fa1f37d64736f6c63430008110033",
  "devdoc": {
    "kind": "dev",
    "methods": {},
    "version": 1
  },
  "userdoc": {
    "kind": "user",
    "methods": {},
    "version": 1
  },
  "storageLayout": {
    "storage": [],
    "types": null
  }
}