{
  "address": "0x887195b902A16eF6B5884b101F0682D73A19d774",
  "abi": [
    {
      "inputs": [
        {
          "internalType": "contract AggregatorInterface",
          "name": "_usdOracle",
          "type": "address"
        },
        {
          "internalType": "uint256[]",
          "name": "_rentPrices",
          "type": "uint256[]"
        },
        {
          "internalType": "uint256",
          "name": "_startPremium",
          "type": "uint256"
        },
        {
          "internalType": "uint256",
          "name": "totalDays",
          "type": "uint256"
        }
      ],
      "stateMutability": "nonpayable",
      "type": "constructor"
    },
    {
      "anonymous": false,
      "inputs": [
        {
          "indexed": true,
          "internalType": "address",
          "name": "previousOwner",
          "type": "address"
        },
        {
          "indexed": true,
          "internalType": "address",
          "name": "newOwner",
          "type": "address"
        }
      ],
      "name": "OwnershipTransferred",
      "type": "event"
    },
    {
      "anonymous": false,
      "inputs": [
        {
          "indexed": false,
          "internalType": "uint256[]",
          "name": "prices",
          "type": "uint256[]"
        }
      ],
      "name": "RentPriceChanged",
      "type": "event"
    },
    {
      "anonymous": false,
      "inputs": [
        {
          "indexed": true,
          "internalType": "address",
          "name": "old",
          "type": "address"
        },
        {
          "indexed": false,
          "internalType": "address",
          "name": "current",
          "type": "address"
        }
      ],
      "name": "SetOracle",
      "type": "event"
    },
    {
      "inputs": [
        {
          "internalType": "uint256",
          "name": "_startPremium",
          "type": "uint256"
        },
        {
          "internalType": "uint256",
          "name": "elapsed",
          "type": "uint256"
        }
      ],
      "name": "decayedPremium",
      "outputs": [
        {
          "internalType": "uint256",
          "name": "",
          "type": "uint256"
        }
      ],
      "stateMutability": "pure",
      "type": "function"
    },
    {
      "inputs": [],
      "name": "owner",
      "outputs": [
        {
          "internalType": "address",
          "name": "",
          "type": "address"
        }
      ],
      "stateMutability": "view",
      "type": "function"
    },
    {
      "inputs": [
        {
          "internalType": "string",
          "name": "name",
          "type": "string"
        },
        {
          "internalType": "uint256",
          "name": "expires",
          "type": "uint256"
        },
        {
          "internalType": "uint256",
          "name": "duration",
          "type": "uint256"
        }
      ],
      "name": "premium",
      "outputs": [
        {
          "internalType": "uint256",
          "name": "",
          "type": "uint256"
        }
      ],
      "stateMutability": "view",
      "type": "function"
    },
    {
      "inputs": [
        {
          "internalType": "string",
          "name": "name",
          "type": "string"
        },
        {
          "internalType": "uint256",
          "name": "expires",
          "type": "uint256"
        },
        {
          "internalType": "uint256",
          "name": "duration",
          "type": "uint256"
        }
      ],
      "name": "price",
      "outputs": [
        {
          "components": [
            {
              "internalType": "uint256",
              "name": "base",
              "type": "uint256"
            },
            {
              "internalType": "uint256",
              "name": "premium",
              "type": "uint256"
            },
            {
              "internalType": "uint256",
              "name": "basePrice",
              "type": "uint256"
            },
            {
              "internalType": "uint256",
              "name": "premiumPrice",
              "type": "uint256"
            }
          ],
          "internalType": "struct IPriceOracle.Price",
          "name": "",
          "type": "tuple"
        }
      ],
      "stateMutability": "view",
      "type": "function"
    },
    {
      "inputs": [],
      "name": "price1Letter",
      "outputs": [
        {
          "internalType": "uint256",
          "name": "",
          "type": "uint256"
        }
      ],
      "stateMutability": "view",
      "type": "function"
    },
    {
      "inputs": [],
      "name": "price2Letter",
      "outputs": [
        {
          "internalType": "uint256",
          "name": "",
          "type": "uint256"
        }
      ],
      "stateMutability": "view",
      "type": "function"
    },
    {
      "inputs": [],
      "name": "price3Letter",
      "outputs": [
        {
          "internalType": "uint256",
          "name": "",
          "type": "uint256"
        }
      ],
      "stateMutability": "view",
      "type": "function"
    },
    {
      "inputs": [],
      "name": "price4Letter",
      "outputs": [
        {
          "internalType": "uint256",
          "name": "",
          "type": "uint256"
        }
      ],
      "stateMutability": "view",
      "type": "function"
    },
    {
      "inputs": [],
      "name": "price5Letter",
      "outputs": [
        {
          "internalType": "uint256",
          "name": "",
          "type": "uint256"
        }
      ],
      "stateMutability": "view",
      "type": "function"
    },
    {
      "inputs": [],
      "name": "renounceOwnership",
      "outputs": [],
      "stateMutability": "nonpayable",
      "type": "function"
    },
    {
      "inputs": [
        {
          "internalType": "contract AggregatorInterface",
          "name": "oracle",
          "type": "address"
        }
      ],
      "name": "setOracle",
      "outputs": [],
      "stateMutability": "nonpayable",
      "type": "function"
    },
    {
      "inputs": [
        {
          "internalType": "bytes4",
          "name": "interfaceID",
          "type": "bytes4"
        }
      ],
      "name": "supportsInterface",
      "outputs": [
        {
          "internalType": "bool",
          "name": "",
          "type": "bool"
        }
      ],
      "stateMutability": "view",
      "type": "function"
    },
    {
      "inputs": [
        {
          "internalType": "address",
          "name": "newOwner",
          "type": "address"
        }
      ],
      "name": "transferOwnership",
      "outputs": [],
      "stateMutability": "nonpayable",
      "type": "function"
    },
    {
      "inputs": [],
      "name": "usdOracle",
      "outputs": [
        {
          "internalType": "contract AggregatorInterface",
          "name": "",
          "type": "address"
        }
      ],
      "stateMutability": "view",
      "type": "function"
    }
  ],
  "transactionHash": "0x9c7b8611f96241f65a83d800c5fb2ac1df3e6e0774320705a3e356e8e55cec9d",
  "args": [
    "0x97cA658672F1aF9F5b777C2737A97b3F06E1484A",
    [
      0,
      0,
      "20294266869609",
      "5073566717402",
      "158548959919"
    ],
    "100000000000000000000000000",
    21
  ],
  "numDeployments": 1,
  "solcInputHash": "94c511ccef30681c8028349b05f9c84f",
  "bytecode": "0x6101606040523480156200001257600080fd5b506040516200136038038062001360833981016040819052620000359162000192565b838362000042336200012c565b600180546001600160a01b0319166001600160a01b038416179055805181906000906200007357620000736200028d565b602002602001015160808181525050806001815181106200009857620000986200028d565b602002602001015160a0818152505080600281518110620000bd57620000bd6200028d565b602002602001015160c0818152505080600381518110620000e257620000e26200028d565b602002602001015160e08181525050806004815181106200010757620001076200028d565b60209081029190910101516101005250506101208290521c6101405250620002a39050565b600080546001600160a01b038381166001600160a01b0319831681178455604051919092169283917f8be0079c531659141344cd1fd0a4f28419497f9722a3daafe3b4186f6b6457e09190a35050565b634e487b7160e01b600052604160045260246000fd5b60008060008060808587031215620001a957600080fd5b84516001600160a01b0381168114620001c157600080fd5b602086810151919550906001600160401b0380821115620001e157600080fd5b818801915088601f830112620001f657600080fd5b8151818111156200020b576200020b6200017c565b8060051b604051601f19603f830116810181811085821117156200023357620002336200017c565b60405291825284820192508381018501918b8311156200025257600080fd5b938501935b82851015620002725784518452938501939285019262000257565b60408b01516060909b0151999c909b50975050505050505050565b634e487b7160e01b600052603260045260246000fd5b60805160a05160c05160e0516101005161012051610140516110386200032860003960008181610953015261097d0152600061092a0152600081816101970152610349015260008181610287015261037801526000818161021301526103a701526000818161026001526103d601526000818161011c01526103fd01526110386000f3fe608060405234801561001057600080fd5b50600436106100ea5760003560e01c80638da5cb5b1161008c578063c8a4271f11610066578063c8a4271f14610248578063cd5d2c741461025b578063d820ed4214610282578063f2fde38b146102a957600080fd5b80638da5cb5b146101e9578063a200e1531461020e578063a34e35961461023557600080fd5b806359b6b86c116100c857806359b6b86c1461019257806359e1777c146101b9578063715018a6146101cc5780637adbf973146101d657600080fd5b806301ffc9a7146100ef5780632c0fd74c1461011757806350e9a7151461014c575b600080fd5b6101026100fd366004610e30565b6102bc565b60405190151581526020015b60405180910390f35b61013e7f000000000000000000000000000000000000000000000000000000000000000081565b60405190815260200161010e565b61015f61015a366004610e72565b6102cd565b60405161010e91908151815260208083015190820152604080830151908201526060918201519181019190915260800190565b61013e7f000000000000000000000000000000000000000000000000000000000000000081565b61013e6101c7366004610ef1565b6104ad565b6101d4610548565b005b6101d46101e4366004610f28565b61055c565b6000546001600160a01b03165b6040516001600160a01b03909116815260200161010e565b61013e7f000000000000000000000000000000000000000000000000000000000000000081565b61013e610243366004610e72565b6105e2565b6001546101f6906001600160a01b031681565b61013e7f000000000000000000000000000000000000000000000000000000000000000081565b61013e7f000000000000000000000000000000000000000000000000000000000000000081565b6101d46102b7366004610f28565b610638565b60006102c7826106cd565b92915050565b6102f86040518060800160405280600081526020016000815260200160008152602001600081525090565b600061033986868080601f01602080910402602001604051908101604052809392919081815260200183838082843760009201919091525061076592505050565b90506000806005831061036d57507f000000000000000000000000000000000000000000000000000000000000000061041d565b8260040361039c57507f000000000000000000000000000000000000000000000000000000000000000061041d565b826003036103cb57507f000000000000000000000000000000000000000000000000000000000000000061041d565b826002036103fa57507f000000000000000000000000000000000000000000000000000000000000000061041d565b507f00000000000000000000000000000000000000000000000000000000000000005b6104278582610f5b565b9150600061046e89898080601f0160208091040260200160405190810160405280939291908181526020018383808284376000920191909152508b92508a91506108f49050565b90506040518060800160405280610484856109b9565b8152602001610492836109b9565b81526020810194909452604090930152509695505050505050565b600080620151806104c6670de0b6b3a764000085610f5b565b6104d09190610f72565b905060006104e6670de0b6b3a764000083610f72565b905084811c60006104ff670de0b6b3a764000084610f5b565b6105099085610f94565b90506000670de0b6b3a76400006105238362010000610f5b565b61052d9190610f72565b9050600061053b8285610a4e565b9998505050505050505050565b610550610d6e565b61055a6000610dc8565b565b610564610d6e565b6001546040516001600160a01b038381168252909116907fb7261e9c33aa7c56209c3bf60b424a8f9551ce28876c0ab3d0c487695e9434879060200160405180910390a2600180547fffffffffffffffffffffffff0000000000000000000000000000000000000000166001600160a01b0392909216919091179055565b600061062f61062a86868080601f0160208091040260200160405190810160405280939291908181526020018383808284376000920191909152508892508791506108f49050565b6109b9565b95945050505050565b610640610d6e565b6001600160a01b0381166106c15760405162461bcd60e51b815260206004820152602660248201527f4f776e61626c653a206e6577206f776e657220697320746865207a65726f206160448201527f646472657373000000000000000000000000000000000000000000000000000060648201526084015b60405180910390fd5b6106ca81610dc8565b50565b60007fffffffff0000000000000000000000000000000000000000000000000000000082167f01ffc9a70000000000000000000000000000000000000000000000000000000014806102c757507fffffffff0000000000000000000000000000000000000000000000000000000082167f50e9a715000000000000000000000000000000000000000000000000000000001492915050565b8051600090819081905b808210156108eb57600085838151811061078b5761078b610fa7565b01602001516001600160f81b03191690507f80000000000000000000000000000000000000000000000000000000000000008110156107d6576107cf600184610fbd565b92506108d8565b7fe0000000000000000000000000000000000000000000000000000000000000006001600160f81b031982161015610813576107cf600284610fbd565b7ff0000000000000000000000000000000000000000000000000000000000000006001600160f81b031982161015610850576107cf600384610fbd565b7ff8000000000000000000000000000000000000000000000000000000000000006001600160f81b03198216101561088d576107cf600484610fbd565b7ffc000000000000000000000000000000000000000000000000000000000000006001600160f81b0319821610156108ca576107cf600584610fbd565b6108d5600684610fbd565b92505b50826108e381610fd0565b93505061076f565b50909392505050565b60006109036276a70084610fbd565b925042831115610915575060006109b2565b60006109218442610f94565b9050600061094f7f0000000000000000000000000000000000000000000000000000000000000000836104ad565b90507f000000000000000000000000000000000000000000000000000000000000000081106109ab576109a27f000000000000000000000000000000000000000000000000000000000000000082610f94565b925050506109b2565b6000925050505b9392505050565b600080600160009054906101000a90046001600160a01b03166001600160a01b03166350d25bcd6040518163ffffffff1660e01b8152600401602060405180830381865afa158015610a0f573d6000803e3d6000fd5b505050506040513d601f19601f82011682018060405250810190610a339190610fe9565b905080610a44846305f5e100610f5b565b6109b29190610f72565b60006001831615610a8157670de0b6b3a7640000610a74670de0ad151d09418084610f5b565b610a7e9190610f72565b91505b6002831615610ab257670de0b6b3a7640000610aa5670de0a3769959680084610f5b565b610aaf9190610f72565b91505b6004831615610ae357670de0b6b3a7640000610ad6670de09039a5fa510084610f5b565b610ae09190610f72565b91505b6008831615610b1457670de0b6b3a7640000610b07670de069c00f3e120084610f5b565b610b119190610f72565b91505b6010831615610b4557670de0b6b3a7640000610b38670de01cce21c9440084610f5b565b610b429190610f72565b91505b6020831615610b7657670de0b6b3a7640000610b69670ddf82ef46ce100084610f5b565b610b739190610f72565b91505b6040831615610ba757670de0b6b3a7640000610b9a670dde4f458f8e8d8084610f5b565b610ba49190610f72565b91505b6080831615610bd857670de0b6b3a7640000610bcb670ddbe84213d5f08084610f5b565b610bd59190610f72565b91505b610100831615610c0a57670de0b6b3a7640000610bfd670dd71b7aa6df5b8084610f5b565b610c079190610f72565b91505b610200831615610c3c57670de0b6b3a7640000610c2f670dcd86e7f28cde0084610f5b565b610c399190610f72565b91505b610400831615610c6e57670de0b6b3a7640000610c61670dba71a3084ad68084610f5b565b610c6b9190610f72565b91505b610800831615610ca057670de0b6b3a7640000610c93670d94961b13dbde8084610f5b565b610c9d9190610f72565b91505b611000831615610cd257670de0b6b3a7640000610cc5670d4a171c35c9838084610f5b565b610ccf9190610f72565b91505b612000831615610d0457670de0b6b3a7640000610cf7670cb9da519ccfb70084610f5b565b610d019190610f72565b91505b614000831615610d3657670de0b6b3a7640000610d29670bab76d59c18d68084610f5b565b610d339190610f72565b91505b618000831615610d6857670de0b6b3a7640000610d5b6709d025defee4df8084610f5b565b610d659190610f72565b91505b50919050565b6000546001600160a01b0316331461055a5760405162461bcd60e51b815260206004820181905260248201527f4f776e61626c653a2063616c6c6572206973206e6f7420746865206f776e657260448201526064016106b8565b600080546001600160a01b038381167fffffffffffffffffffffffff0000000000000000000000000000000000000000831681178455604051919092169283917f8be0079c531659141344cd1fd0a4f28419497f9722a3daafe3b4186f6b6457e09190a35050565b600060208284031215610e4257600080fd5b81357fffffffff00000000000000000000000000000000000000000000000000000000811681146109b257600080fd5b60008060008060608587031215610e8857600080fd5b843567ffffffffffffffff80821115610ea057600080fd5b818701915087601f830112610eb457600080fd5b813581811115610ec357600080fd5b886020828501011115610ed557600080fd5b6020928301999098509187013596604001359550909350505050565b60008060408385031215610f0457600080fd5b50508035926020909101359150565b6001600160a01b03811681146106ca57600080fd5b600060208284031215610f3a57600080fd5b81356109b281610f13565b634e487b7160e01b600052601160045260246000fd5b80820281158282048414176102c7576102c7610f45565b600082610f8f57634e487b7160e01b600052601260045260246000fd5b500490565b818103818111156102c7576102c7610f45565b634e487b7160e01b600052603260045260246000fd5b808201808211156102c7576102c7610f45565b600060018201610fe257610fe2610f45565b5060010190565b600060208284031215610ffb57600080fd5b505191905056fea2646970667358221220f737ce93ad6187b4c60b10932f3cd70e26b6c6d57d7c8602bc3b369628ce770c64736f6c63430008110033",
  "devdoc": {
    "kind": "dev",
    "methods": {
      "decayedPremium(uint256,uint256)": {
        "details": "Returns the premium price at current time elapsed",
        "params": {
          "_startPremium": "starting price",
          "elapsed": "time past since expiry"
        }
      },
      "owner()": {
        "details": "Returns the address of the current owner."
      },
      "premium(string,uint256,uint256)": {
        "details": "Returns the pricing premium in wei."
      },
      "price(string,uint256,uint256)": {
        "details": "Returns the price to register or renew a name.",
        "params": {
          "duration": "How long the name is being registered or extended for, in seconds.",
          "expires": "When the name presently expires (0 if this is a new registration).",
          "name": "The name being registered or renewed."
        },
        "returns": {
          "_0": "base premium tuple of base price + premium price"
        }
      },
      "renounceOwnership()": {
        "details": "Leaves the contract without owner. It will not be possible to call `onlyOwner` functions anymore. Can only be called by the current owner. NOTE: Renouncing ownership will leave the contract without an owner, thereby removing any functionality that is only available to the owner."
      },
      "transferOwnership(address)": {
        "details": "Transfers ownership of the contract to a new account (`newOwner`). Can only be called by the current owner."
      }
    },
    "version": 1
  },
  "userdoc": {
    "kind": "user",
    "methods": {},
    "version": 1
  },
  "storageLayout": {
    "storage": [
      {
        "astId": 7,
        "contract": "contracts/registrar/ExponentialPremiumPriceOracle.sol:ExponentialPremiumPriceOracle",
        "label": "_owner",
        "offset": 0,
        "slot": "0",
        "type": "t_address"
      },
      {
        "astId": 15737,
        "contract": "contracts/registrar/ExponentialPremiumPriceOracle.sol:ExponentialPremiumPriceOracle",
        "label": "usdOracle",
        "offset": 0,
        "slot": "1",
        "type": "t_contract(AggregatorInterface)15716"
      }
    ],
    "types": {
      "t_address": {
        "encoding": "inplace",
        "label": "address",
        "numberOfBytes": "20"
      },
      "t_contract(AggregatorInterface)15716": {
        "encoding": "inplace",
        "label": "contract AggregatorInterface",
        "numberOfBytes": "20"
      }
    }
  }
}