{
  "address": "0xC5513902F3a47E7F102d81f2A53Fd233a518B5F9",
  "abi": [
    {
      "inputs": [
        {
          "internalType": "address",
          "name": "_controller",
          "type": "address"
        },
        {
          "internalType": "address payable",
          "name": "_sunday",
          "type": "address"
        },
        {
          "internalType": "address payable",
          "name": "_receiver",
          "type": "address"
        }
      ],
      "stateMutability": "nonpayable",
      "type": "constructor"
    },
    {
      "anonymous": false,
      "inputs": [
        {
          "indexed": true,
          "internalType": "address",
          "name": "owner",
          "type": "address"
        },
        {
          "indexed": true,
          "internalType": "address",
          "name": "spender",
          "type": "address"
        },
        {
          "indexed": false,
          "internalType": "uint256",
          "name": "value",
          "type": "uint256"
        }
      ],
      "name": "Approval",
      "type": "event"
    },
    {
      "anonymous": false,
      "inputs": [
        {
          "indexed": false,
          "internalType": "string",
          "name": "name",
          "type": "string"
        },
        {
          "indexed": true,
          "internalType": "address",
          "name": "receiver",
          "type": "address"
        },
        {
          "indexed": true,
          "internalType": "address",
          "name": "sunday",
          "type": "address"
        },
        {
          "indexed": false,
          "internalType": "uint256",
          "name": "baseCost",
          "type": "uint256"
        },
        {
          "indexed": false,
          "internalType": "uint256",
          "name": "premium",
          "type": "uint256"
        },
        {
          "indexed": false,
          "internalType": "bool",
          "name": "register",
          "type": "bool"
        }
      ],
      "name": "Charge",
      "type": "event"
    },
    {
      "anonymous": false,
      "inputs": [
        {
          "indexed": true,
          "internalType": "address",
          "name": "delegator",
          "type": "address"
        },
        {
          "indexed": true,
          "internalType": "address",
          "name": "fromDelegate",
          "type": "address"
        },
        {
          "indexed": true,
          "internalType": "address",
          "name": "toDelegate",
          "type": "address"
        }
      ],
      "name": "DelegateChanged",
      "type": "event"
    },
    {
      "anonymous": false,
      "inputs": [
        {
          "indexed": true,
          "internalType": "address",
          "name": "delegate",
          "type": "address"
        },
        {
          "indexed": false,
          "internalType": "uint256",
          "name": "previousBalance",
          "type": "uint256"
        },
        {
          "indexed": false,
          "internalType": "uint256",
          "name": "newBalance",
          "type": "uint256"
        }
      ],
      "name": "DelegateVotesChanged",
      "type": "event"
    },
    {
      "anonymous": false,
      "inputs": [
        {
          "indexed": false,
          "internalType": "string",
          "name": "name",
          "type": "string"
        },
        {
          "indexed": true,
          "internalType": "bytes32",
          "name": "label",
          "type": "bytes32"
        },
        {
          "indexed": true,
          "internalType": "address",
          "name": "owner",
          "type": "address"
        },
        {
          "indexed": false,
          "internalType": "uint256",
          "name": "baseCost",
          "type": "uint256"
        },
        {
          "indexed": false,
          "internalType": "uint256",
          "name": "premium",
          "type": "uint256"
        },
        {
          "indexed": false,
          "internalType": "uint256",
          "name": "expires",
          "type": "uint256"
        }
      ],
      "name": "NameRegistered",
      "type": "event"
    },
    {
      "anonymous": false,
      "inputs": [
        {
          "indexed": false,
          "internalType": "string",
          "name": "name",
          "type": "string"
        },
        {
          "indexed": true,
          "internalType": "bytes32",
          "name": "label",
          "type": "bytes32"
        },
        {
          "indexed": false,
          "internalType": "uint256",
          "name": "cost",
          "type": "uint256"
        },
        {
          "indexed": false,
          "internalType": "uint256",
          "name": "expires",
          "type": "uint256"
        }
      ],
      "name": "NameRenewed",
      "type": "event"
    },
    {
      "anonymous": false,
      "inputs": [
        {
          "indexed": true,
          "internalType": "address",
          "name": "previousOwner",
          "type": "address"
        },
        {
          "indexed": true,
          "internalType": "address",
          "name": "newOwner",
          "type": "address"
        }
      ],
      "name": "OwnershipTransferred",
      "type": "event"
    },
    {
      "anonymous": false,
      "inputs": [
        {
          "indexed": true,
          "internalType": "address",
          "name": "from",
          "type": "address"
        },
        {
          "indexed": true,
          "internalType": "address",
          "name": "to",
          "type": "address"
        },
        {
          "indexed": false,
          "internalType": "uint256",
          "name": "value",
          "type": "uint256"
        }
      ],
      "name": "Transfer",
      "type": "event"
    },
    {
      "inputs": [],
      "name": "DOMAIN_SEPARATOR",
      "outputs": [
        {
          "internalType": "bytes32",
          "name": "",
          "type": "bytes32"
        }
      ],
      "stateMutability": "view",
      "type": "function"
    },
    {
      "inputs": [
        {
          "internalType": "address",
          "name": "owner",
          "type": "address"
        },
        {
          "internalType": "address",
          "name": "spender",
          "type": "address"
        }
      ],
      "name": "allowance",
      "outputs": [
        {
          "internalType": "uint256",
          "name": "",
          "type": "uint256"
        }
      ],
      "stateMutability": "view",
      "type": "function"
    },
    {
      "inputs": [
        {
          "internalType": "address",
          "name": "spender",
          "type": "address"
        },
        {
          "internalType": "uint256",
          "name": "amount",
          "type": "uint256"
        }
      ],
      "name": "approve",
      "outputs": [
        {
          "internalType": "bool",
          "name": "",
          "type": "bool"
        }
      ],
      "stateMutability": "nonpayable",
      "type": "function"
    },
    {
      "inputs": [
        {
          "internalType": "string",
          "name": "name",
          "type": "string"
        }
      ],
      "name": "available",
      "outputs": [
        {
          "internalType": "bool",
          "name": "",
          "type": "bool"
        }
      ],
      "stateMutability": "view",
      "type": "function"
    },
    {
      "inputs": [
        {
          "internalType": "address",
          "name": "account",
          "type": "address"
        }
      ],
      "name": "balanceOf",
      "outputs": [
        {
          "internalType": "uint256",
          "name": "",
          "type": "uint256"
        }
      ],
      "stateMutability": "view",
      "type": "function"
    },
    {
      "inputs": [
        {
          "internalType": "address",
          "name": "account",
          "type": "address"
        },
        {
          "internalType": "uint32",
          "name": "pos",
          "type": "uint32"
        }
      ],
      "name": "checkpoints",
      "outputs": [
        {
          "components": [
            {
              "internalType": "uint32",
              "name": "fromBlock",
              "type": "uint32"
            },
            {
              "internalType": "uint224",
              "name": "votes",
              "type": "uint224"
            }
          ],
          "internalType": "struct FERC20Votes.Checkpoint",
          "name": "",
          "type": "tuple"
        }
      ],
      "stateMutability": "view",
      "type": "function"
    },
    {
      "inputs": [
        {
          "internalType": "bytes32",
          "name": "commitment",
          "type": "bytes32"
        }
      ],
      "name": "commit",
      "outputs": [],
      "stateMutability": "nonpayable",
      "type": "function"
    },
    {
      "inputs": [],
      "name": "controller",
      "outputs": [
        {
          "internalType": "contract IRegistrarControllerFns",
          "name": "",
          "type": "address"
        }
      ],
      "stateMutability": "view",
      "type": "function"
    },
    {
      "inputs": [],
      "name": "decimals",
      "outputs": [
        {
          "internalType": "uint8",
          "name": "",
          "type": "uint8"
        }
      ],
      "stateMutability": "view",
      "type": "function"
    },
    {
      "inputs": [
        {
          "internalType": "address",
          "name": "spender",
          "type": "address"
        },
        {
          "internalType": "uint256",
          "name": "subtractedValue",
          "type": "uint256"
        }
      ],
      "name": "decreaseAllowance",
      "outputs": [
        {
          "internalType": "bool",
          "name": "",
          "type": "bool"
        }
      ],
      "stateMutability": "nonpayable",
      "type": "function"
    },
    {
      "inputs": [
        {
          "internalType": "address",
          "name": "delegatee",
          "type": "address"
        }
      ],
      "name": "delegate",
      "outputs": [],
      "stateMutability": "nonpayable",
      "type": "function"
    },
    {
      "inputs": [
        {
          "internalType": "address",
          "name": "delegatee",
          "type": "address"
        },
        {
          "internalType": "uint256",
          "name": "nonce",
          "type": "uint256"
        },
        {
          "internalType": "uint256",
          "name": "expiry",
          "type": "uint256"
        },
        {
          "internalType": "uint8",
          "name": "v",
          "type": "uint8"
        },
        {
          "internalType": "bytes32",
          "name": "r",
          "type": "bytes32"
        },
        {
          "internalType": "bytes32",
          "name": "s",
          "type": "bytes32"
        }
      ],
      "name": "delegateBySig",
      "outputs": [],
      "stateMutability": "nonpayable",
      "type": "function"
    },
    {
      "inputs": [
        {
          "internalType": "address",
          "name": "account",
          "type": "address"
        }
      ],
      "name": "delegates",
      "outputs": [
        {
          "internalType": "address",
          "name": "",
          "type": "address"
        }
      ],
      "stateMutability": "view",
      "type": "function"
    },
    {
      "inputs": [
        {
          "internalType": "uint256",
          "name": "blockNumber",
          "type": "uint256"
        }
      ],
      "name": "getPastTotalSupply",
      "outputs": [
        {
          "internalType": "uint256",
          "name": "",
          "type": "uint256"
        }
      ],
      "stateMutability": "view",
      "type": "function"
    },
    {
      "inputs": [
        {
          "internalType": "address",
          "name": "account",
          "type": "address"
        },
        {
          "internalType": "uint256",
          "name": "blockNumber",
          "type": "uint256"
        }
      ],
      "name": "getPastVotes",
      "outputs": [
        {
          "internalType": "uint256",
          "name": "",
          "type": "uint256"
        }
      ],
      "stateMutability": "view",
      "type": "function"
    },
    {
      "inputs": [
        {
          "internalType": "address",
          "name": "account",
          "type": "address"
        }
      ],
      "name": "getVotes",
      "outputs": [
        {
          "internalType": "uint256",
          "name": "",
          "type": "uint256"
        }
      ],
      "stateMutability": "view",
      "type": "function"
    },
    {
      "inputs": [
        {
          "internalType": "address",
          "name": "spender",
          "type": "address"
        },
        {
          "internalType": "uint256",
          "name": "addedValue",
          "type": "uint256"
        }
      ],
      "name": "increaseAllowance",
      "outputs": [
        {
          "internalType": "bool",
          "name": "",
          "type": "bool"
        }
      ],
      "stateMutability": "nonpayable",
      "type": "function"
    },
    {
      "inputs": [
        {
          "internalType": "string",
          "name": "name",
          "type": "string"
        },
        {
          "internalType": "address",
          "name": "owner",
          "type": "address"
        },
        {
          "internalType": "uint256",
          "name": "duration",
          "type": "uint256"
        },
        {
          "internalType": "bytes32",
          "name": "secret",
          "type": "bytes32"
        },
        {
          "internalType": "address",
          "name": "resolver",
          "type": "address"
        },
        {
          "internalType": "bytes[]",
          "name": "data",
          "type": "bytes[]"
        },
        {
          "internalType": "bool",
          "name": "reverseRecord",
          "type": "bool"
        },
        {
          "internalType": "uint16",
          "name": "ownerControlledFuses",
          "type": "uint16"
        }
      ],
      "name": "makeCommitment",
      "outputs": [
        {
          "internalType": "bytes32",
          "name": "",
          "type": "bytes32"
        }
      ],
      "stateMutability": "view",
      "type": "function"
    },
    {
      "inputs": [
        {
          "internalType": "address",
          "name": "dest",
          "type": "address"
        },
        {
          "internalType": "uint256",
          "name": "amount",
          "type": "uint256"
        }
      ],
      "name": "mint",
      "outputs": [],
      "stateMutability": "nonpayable",
      "type": "function"
    },
    {
      "inputs": [],
      "name": "name",
      "outputs": [
        {
          "internalType": "string",
          "name": "",
          "type": "string"
        }
      ],
      "stateMutability": "view",
      "type": "function"
    },
    {
      "inputs": [
        {
          "internalType": "address",
          "name": "owner",
          "type": "address"
        }
      ],
      "name": "nonces",
      "outputs": [
        {
          "internalType": "uint256",
          "name": "",
          "type": "uint256"
        }
      ],
      "stateMutability": "view",
      "type": "function"
    },
    {
      "inputs": [
        {
          "internalType": "address",
          "name": "account",
          "type": "address"
        }
      ],
      "name": "numCheckpoints",
      "outputs": [
        {
          "internalType": "uint32",
          "name": "",
          "type": "uint32"
        }
      ],
      "stateMutability": "view",
      "type": "function"
    },
    {
      "inputs": [],
      "name": "owner",
      "outputs": [
        {
          "internalType": "address",
          "name": "",
          "type": "address"
        }
      ],
      "stateMutability": "view",
      "type": "function"
    },
    {
      "inputs": [
        {
          "internalType": "address",
          "name": "owner",
          "type": "address"
        },
        {
          "internalType": "address",
          "name": "spender",
          "type": "address"
        },
        {
          "internalType": "uint256",
          "name": "value",
          "type": "uint256"
        },
        {
          "internalType": "uint256",
          "name": "deadline",
          "type": "uint256"
        },
        {
          "internalType": "uint8",
          "name": "v",
          "type": "uint8"
        },
        {
          "internalType": "bytes32",
          "name": "r",
          "type": "bytes32"
        },
        {
          "internalType": "bytes32",
          "name": "s",
          "type": "bytes32"
        }
      ],
      "name": "permit",
      "outputs": [],
      "stateMutability": "nonpayable",
      "type": "function"
    },
    {
      "inputs": [
        {
          "internalType": "uint256",
          "name": "amount",
          "type": "uint256"
        }
      ],
      "name": "pledge",
      "outputs": [],
      "stateMutability": "nonpayable",
      "type": "function"
    },
    {
      "inputs": [],
      "name": "receiveCall",
      "outputs": [],
      "stateMutability": "payable",
      "type": "function"
    },
    {
      "inputs": [],
      "name": "receiver",
      "outputs": [
        {
          "internalType": "contract Receiver",
          "name": "",
          "type": "address"
        }
      ],
      "stateMutability": "view",
      "type": "function"
    },
    {
      "inputs": [
        {
          "internalType": "string",
          "name": "name",
          "type": "string"
        },
        {
          "internalType": "address",
          "name": "owner",
          "type": "address"
        },
        {
          "internalType": "uint256",
          "name": "duration",
          "type": "uint256"
        },
        {
          "internalType": "bytes32",
          "name": "secret",
          "type": "bytes32"
        },
        {
          "internalType": "address",
          "name": "resolver",
          "type": "address"
        },
        {
          "internalType": "bytes[]",
          "name": "data",
          "type": "bytes[]"
        },
        {
          "internalType": "bool",
          "name": "reverseRecord",
          "type": "bool"
        },
        {
          "internalType": "uint16",
          "name": "ownerControlledFuses",
          "type": "uint16"
        }
      ],
      "name": "register",
      "outputs": [],
      "stateMutability": "payable",
      "type": "function"
    },
    {
      "inputs": [
        {
          "internalType": "string",
          "name": "name",
          "type": "string"
        },
        {
          "internalType": "uint256",
          "name": "duration",
          "type": "uint256"
        }
      ],
      "name": "renew",
      "outputs": [
        {
          "internalType": "uint256",
          "name": "",
          "type": "uint256"
        },
        {
          "internalType": "bytes32",
          "name": "",
          "type": "bytes32"
        }
      ],
      "stateMutability": "payable",
      "type": "function"
    },
    {
      "inputs": [
        {
          "internalType": "string[]",
          "name": "names",
          "type": "string[]"
        },
        {
          "internalType": "uint256",
          "name": "duration",
          "type": "uint256"
        }
      ],
      "name": "renewAll",
      "outputs": [],
      "stateMutability": "payable",
      "type": "function"
    },
    {
      "inputs": [],
      "name": "renounceOwnership",
      "outputs": [],
      "stateMutability": "nonpayable",
      "type": "function"
    },
    {
      "inputs": [
        {
          "internalType": "string[]",
          "name": "names",
          "type": "string[]"
        },
        {
          "internalType": "uint256",
          "name": "duration",
          "type": "uint256"
        }
      ],
      "name": "rentPrice",
      "outputs": [
        {
          "internalType": "uint256",
          "name": "total",
          "type": "uint256"
        },
        {
          "internalType": "uint256",
          "name": "totalFns",
          "type": "uint256"
        }
      ],
      "stateMutability": "view",
      "type": "function"
    },
    {
      "inputs": [
        {
          "internalType": "string",
          "name": "name",
          "type": "string"
        },
        {
          "internalType": "uint256",
          "name": "duration",
          "type": "uint256"
        }
      ],
      "name": "rentPrice",
      "outputs": [
        {
          "components": [
            {
              "internalType": "uint256",
              "name": "base",
              "type": "uint256"
            },
            {
              "internalType": "uint256",
              "name": "premium",
              "type": "uint256"
            },
            {
              "internalType": "uint256",
              "name": "basePrice",
              "type": "uint256"
            },
            {
              "internalType": "uint256",
              "name": "premiumPrice",
              "type": "uint256"
            }
          ],
          "internalType": "struct IPriceOracle.Price",
          "name": "price",
          "type": "tuple"
        }
      ],
      "stateMutability": "view",
      "type": "function"
    },
    {
      "inputs": [],
      "name": "sunday",
      "outputs": [
        {
          "internalType": "contract Sunday",
          "name": "",
          "type": "address"
        }
      ],
      "stateMutability": "view",
      "type": "function"
    },
    {
      "inputs": [
        {
          "internalType": "bytes4",
          "name": "interfaceID",
          "type": "bytes4"
        }
      ],
      "name": "supportsInterface",
      "outputs": [
        {
          "internalType": "bool",
          "name": "",
          "type": "bool"
        }
      ],
      "stateMutability": "pure",
      "type": "function"
    },
    {
      "inputs": [],
      "name": "symbol",
      "outputs": [
        {
          "internalType": "string",
          "name": "",
          "type": "string"
        }
      ],
      "stateMutability": "view",
      "type": "function"
    },
    {
      "inputs": [],
      "name": "totalSupply",
      "outputs": [
        {
          "internalType": "uint256",
          "name": "",
          "type": "uint256"
        }
      ],
      "stateMutability": "view",
      "type": "function"
    },
    {
      "inputs": [
        {
          "internalType": "address",
          "name": "to",
          "type": "address"
        },
        {
          "internalType": "uint256",
          "name": "amount",
          "type": "uint256"
        }
      ],
      "name": "transfer",
      "outputs": [
        {
          "internalType": "bool",
          "name": "",
          "type": "bool"
        }
      ],
      "stateMutability": "nonpayable",
      "type": "function"
    },
    {
      "inputs": [
        {
          "internalType": "address",
          "name": "from",
          "type": "address"
        },
        {
          "internalType": "address",
          "name": "to",
          "type": "address"
        },
        {
          "internalType": "uint256",
          "name": "amount",
          "type": "uint256"
        }
      ],
      "name": "transferFrom",
      "outputs": [
        {
          "internalType": "bool",
          "name": "",
          "type": "bool"
        }
      ],
      "stateMutability": "nonpayable",
      "type": "function"
    },
    {
      "inputs": [
        {
          "internalType": "address",
          "name": "newOwner",
          "type": "address"
        }
      ],
      "name": "transferOwnership",
      "outputs": [],
      "stateMutability": "nonpayable",
      "type": "function"
    },
    {
      "stateMutability": "payable",
      "type": "receive"
    }
  ],
  "transactionHash": "0x2abd65e69d193d35a78c3f4eaca0e1c512ad1f25ce3d4ec850747c7f8a44cb46",
  "args": [
    "0xfEa0e215CE247f5C433023f50E46c862b283809F",
    "0x9B0D73f77b18Fd0b4499a37e129666E5f5130191",
    "0x6aD54797f5d60ab2f6eDa702BC7c33367eC23aAc"
  ],
  "numDeployments": 2,
  "solcInputHash": "94c511ccef30681c8028349b05f9c84f",
  "bytecode": "0x6101606040527f6e71edae12b1b97f4d1f60370fef10105fa2faae0126114a169c64845d6126c9610140523480156200003757600080fd5b5060405162003c1038038062003c108339810160408190526200005a916200026a565b6040518060400160405280601581526020017f46696c65636f696e204e616d652053657276696365000000000000000000000081525080604051806040016040528060018152602001603160f81b8152506040518060400160405280601581526020017f46696c65636f696e204e616d652053657276696365000000000000000000000081525060405180604001604052806003815260200162464e5360e81b81525081600390816200010e919062000363565b5060046200011d828262000363565b5050825160209384012082519284019290922060e08390526101008190524660a0818152604080517f8b73c3c69bb8fe3d512ecc4cf759cc79239f7b179b0ffacaa9a75d522b39400f818901819052818301979097526060810194909452608080850193909352308483018190528151808603909301835260c0948501909152815191909601209052929092526101205250620001bc905033620001ff565b600a80546001600160a01b039485166001600160a01b031991821617909155600b805493851693821693909317909255600c80549190931691161790556200042f565b600980546001600160a01b038381166001600160a01b0319831681179093556040519116919082907f8be0079c531659141344cd1fd0a4f28419497f9722a3daafe3b4186f6b6457e090600090a35050565b6001600160a01b03811681146200026757600080fd5b50565b6000806000606084860312156200028057600080fd5b83516200028d8162000251565b6020850151909350620002a08162000251565b6040850151909250620002b38162000251565b809150509250925092565b634e487b7160e01b600052604160045260246000fd5b600181811c90821680620002e957607f821691505b6020821081036200030a57634e487b7160e01b600052602260045260246000fd5b50919050565b601f8211156200035e57600081815260208120601f850160051c81016020861015620003395750805b601f850160051c820191505b818110156200035a5782815560010162000345565b5050505b505050565b81516001600160401b038111156200037f576200037f620002be565b6200039781620003908454620002d4565b8462000310565b602080601f831160018114620003cf5760008415620003b65750858301515b600019600386901b1c1916600185901b1785556200035a565b600085815260208120601f198616915b828110156200040057888601518255948401946001909101908401620003df565b50858210156200041f5787850151600019600388901b60f8161c191681555b5050505050600190811b01905550565b60805160a05160c05160e0516101005161012051610140516137866200048a600039600061152d01526000611dbd01526000611e0c01526000611de701526000611d4001526000611d6a01526000611d9401526137866000f3fe6080604052600436106102bf5760003560e01c806383e7f6ff1161016e578063aeb8ce9b116100cb578063f1127ed81161007f578063f2fde38b11610064578063f2fde38b14610811578063f7260d3e14610831578063f77c47911461085157600080fd5b8063f1127ed8146107a7578063f14fcbc8146107f157600080fd5b8063d505accf116100b0578063d505accf1461072e578063dd62ed3e1461074e578063e8d6dbb41461079457600080fd5b8063aeb8ce9b146106ee578063c3cda5201461070e57600080fd5b80639cc8dc4b11610122578063a4e976db11610107578063a4e976db1461069b578063a9059cbb146106bb578063acf1a841146106db57600080fd5b80639cc8dc4b14610673578063a457c2d71461067b57600080fd5b80638e539e8c116101535780638e539e8c1461061e57806395d89b411461063e5780639ab24eb01461065357600080fd5b806383e7f6ff146105ad5780638da5cb5b1461060057600080fd5b806340c10f191161021c57806370a08231116101d05780637326c9c0116101b55780637326c9c01461055a57806374694a2b1461057a5780637ecebe001461058d57600080fd5b806370a082311461050f578063715018a61461054557600080fd5b80635c19a95c116102015780635c19a95c1461049a57806365a69dcf146104ba5780636fcfff45146104da57600080fd5b806340c10f1914610427578063587cde1e1461044957600080fd5b8063313ce56711610273578063395093511161025857806339509351146103b25780633971d467146103d25780633a46b1a81461040757600080fd5b8063313ce567146103815780633644e5151461039d57600080fd5b8063095ea7b3116102a4578063095ea7b31461032257806318160ddd1461034257806323b872dd1461036157600080fd5b806301ffc9a7146102cb57806306fdde031461030057600080fd5b366102c657005b600080fd5b3480156102d757600080fd5b506102eb6102e6366004612c95565b610871565b60405190151581526020015b60405180910390f35b34801561030c57600080fd5b50610315610976565b6040516102f79190612d05565b34801561032e57600080fd5b506102eb61033d366004612d34565b610a08565b34801561034e57600080fd5b506002545b6040519081526020016102f7565b34801561036d57600080fd5b506102eb61037c366004612d5e565b610a20565b34801561038d57600080fd5b50604051601281526020016102f7565b3480156103a957600080fd5b50610353610a44565b3480156103be57600080fd5b506102eb6103cd366004612d34565b610a53565b3480156103de57600080fd5b506103f26103ed366004612de6565b610a92565b604080519283526020830191909152016102f7565b34801561041357600080fd5b50610353610422366004612d34565b610b6a565b34801561043357600080fd5b50610447610442366004612d34565b610be9565b005b34801561045557600080fd5b50610482610464366004612e32565b6001600160a01b039081166000908152600660205260409020541690565b6040516001600160a01b0390911681526020016102f7565b3480156104a657600080fd5b506104476104b5366004612e32565b610c55565b3480156104c657600080fd5b506103536104d5366004612f10565b610c62565b3480156104e657600080fd5b506104fa6104f5366004612e32565b610d0b565b60405163ffffffff90911681526020016102f7565b34801561051b57600080fd5b5061035361052a366004612e32565b6001600160a01b031660009081526020819052604090205490565b34801561055157600080fd5b50610447610d2d565b34801561056657600080fd5b50610447610575366004612fd1565b610d41565b61044761058836600461302c565b610d5b565b34801561059957600080fd5b506103536105a8366004612e32565b610ed5565b3480156105b957600080fd5b506105cd6105c83660046130f6565b610ef3565b6040516102f791908151815260208083015190820152604080830151908201526060918201519181019190915260800190565b34801561060c57600080fd5b506009546001600160a01b0316610482565b34801561062a57600080fd5b50610353610639366004612fd1565b610faa565b34801561064a57600080fd5b50610315611006565b34801561065f57600080fd5b5061035361066e366004612e32565b611015565b61044761109c565b34801561068757600080fd5b506102eb610696366004612d34565b611118565b3480156106a757600080fd5b50600b54610482906001600160a01b031681565b3480156106c757600080fd5b506102eb6106d6366004612d34565b6111c2565b6103f26106e936600461313b565b6111d0565b3480156106fa57600080fd5b506102eb610709366004613173565b611318565b34801561071a57600080fd5b506104476107293660046131c1565b6113a3565b34801561073a57600080fd5b50610447610749366004613219565b6114d9565b34801561075a57600080fd5b50610353610769366004613283565b6001600160a01b03918216600090815260016020908152604080832093909416825291909152205490565b6104476107a2366004612de6565b61163d565b3480156107b357600080fd5b506107c76107c23660046132b6565b6117ea565b60408051825163ffffffff1681526020928301516001600160e01b031692810192909252016102f7565b3480156107fd57600080fd5b5061044761080c366004612fd1565b61186e565b34801561081d57600080fd5b5061044761082c366004612e32565b6118e8565b34801561083d57600080fd5b50600c54610482906001600160a01b031681565b34801561085d57600080fd5b50600a54610482906001600160a01b031681565b60006001600160e01b031982167f612e8c090000000000000000000000000000000000000000000000000000000014806108d457506001600160e01b031982167f36372b0700000000000000000000000000000000000000000000000000000000145b8061090857506001600160e01b031982167f9d8ff7da00000000000000000000000000000000000000000000000000000000145b8061093c57506001600160e01b031982167fa219a02500000000000000000000000000000000000000000000000000000000145b8061097057506001600160e01b031982167fd1a70fd300000000000000000000000000000000000000000000000000000000145b92915050565b606060038054610985906132f6565b80601f01602080910402602001604051908101604052809291908181526020018280546109b1906132f6565b80156109fe5780601f106109d3576101008083540402835291602001916109fe565b820191906000526020600020905b8154815290600101906020018083116109e157829003601f168201915b5050505050905090565b600033610a16818585611975565b5060019392505050565b600033610a2e858285611acd565b610a39858585611b5f565b506001949350505050565b6000610a4e611d33565b905090565b3360008181526001602090815260408083206001600160a01b0387168452909152812054909190610a169082908690610a8d908790613340565b611975565b60008083815b81811015610b6057600a546000906001600160a01b03166383e7f6ff898985818110610ac657610ac6613353565b9050602002810190610ad89190613369565b896040518463ffffffff1660e01b8152600401610af7939291906133d9565b608060405180830381865afa158015610b14573d6000803e3d6000fd5b505050506040513d601f19601f82011682018060405250810190610b3891906133fd565b6020810151815160608301516040909301519101969096019501939093019250600101610a98565b5050935093915050565b6000438210610bc05760405162461bcd60e51b815260206004820152601f60248201527f4552433230566f7465733a20626c6f636b206e6f7420796574206d696e65640060448201526064015b60405180910390fd5b6001600160a01b0383166000908152600760205260409020610be29083611e5a565b9392505050565b610bf1611f17565b6000610bfe600a83613463565b600c54909150610c17906001600160a01b031682611f71565b600b54610c37906001600160a01b0316610c32836004613485565b611f71565b610c5083610c46836005613485565b610c32908561349c565b505050565b610c5f3382611f7b565b50565b600a546040517f65a69dcf0000000000000000000000000000000000000000000000000000000081526000916001600160a01b0316906365a69dcf90610cbc908d908d908d908d908d908d908d908d908d90600401613541565b602060405180830381865afa158015610cd9573d6000803e3d6000fd5b505050506040513d601f19601f82011682018060405250810190610cfd91906135b1565b9a9950505050505050505050565b6001600160a01b0381166000908152600760205260408120546109709061200c565b610d35611f17565b610d3f600061208c565b565b600b54610d57906001600160a01b0316826111c2565b5050565b3415610da95760405162461bcd60e51b815260206004820152601660248201527f464e533a20506c656173652070617920696e20464e53000000000000000000006044820152606401610bb7565b6000610db88b8b8a60016120f6565b600a546040517fd38551aa0000000000000000000000000000000000000000000000000000000081529192506000916001600160a01b039091169063d38551aa90610e19908f908f908f908f908f908f908f908f908f908f906004016135ca565b6020604051808303816000875af1158015610e38573d6000803e3d6000fd5b505050506040513d601f19601f82011682018060405250810190610e5c91906135b1565b9050896001600160a01b03168c8c604051610e7892919061363c565b60405180910390207f69e37f151eb98a09618ddaa80c8cfaf1ce5996867c489f45b555b412271ebf278e8e8660400151876060015187604051610ebf95949392919061364c565b60405180910390a3505050505050505050505050565b6001600160a01b038116600090815260056020526040812054610970565b610f1e6040518060800160405280600081526020016000815260200160008152602001600081525090565b600a546040517f83e7f6ff0000000000000000000000000000000000000000000000000000000081526001600160a01b03909116906383e7f6ff90610f69908690869060040161367d565b608060405180830381865afa158015610f86573d6000803e3d6000fd5b505050506040513d601f19601f82011682018060405250810190610be291906133fd565b6000438210610ffb5760405162461bcd60e51b815260206004820152601f60248201527f4552433230566f7465733a20626c6f636b206e6f7420796574206d696e6564006044820152606401610bb7565b610970600883611e5a565b606060048054610985906132f6565b6001600160a01b0381166000908152600760205260408120548015611089576001600160a01b038316600090815260076020526040902061105760018361349c565b8154811061106757611067613353565b60009182526020909120015464010000000090046001600160e01b031661108c565b60005b6001600160e01b03169392505050565b600c546001600160a01b03166108fc6110b6600a34613463565b6040518115909202916000818181858888f193505050501580156110de573d6000803e3d6000fd5b50600b546040516001600160a01b03909116904780156108fc02916000818181858888f19350505050158015610c5f573d6000803e3d6000fd5b3360008181526001602090815260408083206001600160a01b0387168452909152812054909190838110156111b55760405162461bcd60e51b815260206004820152602560248201527f45524332303a2064656372656173656420616c6c6f77616e63652062656c6f7760448201527f207a65726f0000000000000000000000000000000000000000000000000000006064820152608401610bb7565b610a398286868403611975565b600033610a16818585611b5f565b60008034156112215760405162461bcd60e51b815260206004820152601660248201527f464e533a20506c656173652070617920696e20464e53000000000000000000006044820152606401610bb7565b600061123086868660006120f6565b600a546040517f42d6bbfe00000000000000000000000000000000000000000000000000000000815291925060009182916001600160a01b0316906342d6bbfe90611283908b908b908b906004016133d9565b60408051808303816000875af11580156112a1573d6000803e3d6000fd5b505050506040513d601f19601f820116820180604052508101906112c5919061369f565b91509150807f3da24c024582931cfaf8267d8ed24d13a82a8068d5bd337d30ec45cea4e506ae898986604001518660405161130394939291906136c3565b60405180910390a29097909650945050505050565b600a546040517faeb8ce9b0000000000000000000000000000000000000000000000000000000081526000916001600160a01b03169063aeb8ce9b90611362908590600401612d05565b602060405180830381865afa15801561137f573d6000803e3d6000fd5b505050506040513d601f19601f8201168201806040525081019061097091906136ea565b834211156113f35760405162461bcd60e51b815260206004820152601d60248201527f4552433230566f7465733a207369676e617475726520657870697265640000006044820152606401610bb7565b604080517fe48329057bfd03d55e49b547132e39cffd9c1820ad7b9d4c5307691425d15adf60208201526001600160a01b03881691810191909152606081018690526080810185905260009061146d906114659060a00160405160208183030381529060405280519060200120612238565b8585856122a1565b9050611478816122c9565b86146114c65760405162461bcd60e51b815260206004820152601960248201527f4552433230566f7465733a20696e76616c6964206e6f6e6365000000000000006044820152606401610bb7565b6114d08188611f7b565b50505050505050565b834211156115295760405162461bcd60e51b815260206004820152601d60248201527f45524332305065726d69743a206578706972656420646561646c696e650000006044820152606401610bb7565b60007f00000000000000000000000000000000000000000000000000000000000000008888886115588c6122c9565b6040805160208101969096526001600160a01b0394851690860152929091166060840152608083015260a082015260c0810186905260e00160405160208183030381529060405280519060200120905060006115b382612238565b905060006115c3828787876122a1565b9050896001600160a01b0316816001600160a01b0316146116265760405162461bcd60e51b815260206004820152601e60248201527f45524332305065726d69743a20696e76616c6964207369676e617475726500006044820152606401610bb7565b6116318a8a8a611975565b50505050505050505050565b341561168b5760405162461bcd60e51b815260206004820152601660248201527f464e533a20506c656173652070617920696e20464e53000000000000000000006044820152606401610bb7565b816000805b828110156117e25760006116c98787848181106116af576116af613353565b90506020028101906116c19190613369565b8760006120f6565b600a5490915060009081906001600160a01b03166342d6bbfe8a8a878181106116f4576116f4613353565b90506020028101906117069190613369565b8a6040518463ffffffff1660e01b8152600401611725939291906133d9565b60408051808303816000875af1158015611743573d6000803e3d6000fd5b505050506040513d601f19601f82011682018060405250810190611767919061369f565b91509150807f3da24c024582931cfaf8267d8ed24d13a82a8068d5bd337d30ec45cea4e506ae8a8a8781811061179f5761179f613353565b90506020028101906117b19190613369565b8660400151866040516117c794939291906136c3565b60405180910390a25050604001519190910190600101611690565b505050505050565b60408051808201909152600080825260208201526001600160a01b0383166000908152600760205260409020805463ffffffff841690811061182e5761182e613353565b60009182526020918290206040805180820190915291015463ffffffff8116825264010000000090046001600160e01b0316918101919091529392505050565b600a546040517ff14fcbc8000000000000000000000000000000000000000000000000000000008152600481018390526001600160a01b039091169063f14fcbc890602401600060405180830381600087803b1580156118cd57600080fd5b505af11580156118e1573d6000803e3d6000fd5b5050505050565b6118f0611f17565b6001600160a01b03811661196c5760405162461bcd60e51b815260206004820152602660248201527f4f776e61626c653a206e6577206f776e657220697320746865207a65726f206160448201527f64647265737300000000000000000000000000000000000000000000000000006064820152608401610bb7565b610c5f8161208c565b6001600160a01b0383166119f05760405162461bcd60e51b8152602060048201526024808201527f45524332303a20617070726f76652066726f6d20746865207a65726f2061646460448201527f72657373000000000000000000000000000000000000000000000000000000006064820152608401610bb7565b6001600160a01b038216611a6c5760405162461bcd60e51b815260206004820152602260248201527f45524332303a20617070726f766520746f20746865207a65726f20616464726560448201527f73730000000000000000000000000000000000000000000000000000000000006064820152608401610bb7565b6001600160a01b0383811660008181526001602090815260408083209487168084529482529182902085905590518481527f8c5be1e5ebec7d5bd14f71427d1e84f3dd0314c0f7b2291e5b200ac8c7c3b925910160405180910390a3505050565b6001600160a01b038381166000908152600160209081526040808320938616835292905220546000198114611b595781811015611b4c5760405162461bcd60e51b815260206004820152601d60248201527f45524332303a20696e73756666696369656e7420616c6c6f77616e63650000006044820152606401610bb7565b611b598484848403611975565b50505050565b6001600160a01b038316611bc35760405162461bcd60e51b815260206004820152602560248201527f45524332303a207472616e736665722066726f6d20746865207a65726f206164604482015264647265737360d81b6064820152608401610bb7565b6001600160a01b038216611c255760405162461bcd60e51b815260206004820152602360248201527f45524332303a207472616e7366657220746f20746865207a65726f206164647260448201526265737360e81b6064820152608401610bb7565b6001600160a01b03831660009081526020819052604090205481811015611c9d5760405162461bcd60e51b815260206004820152602660248201527f45524332303a207472616e7366657220616d6f756e7420657863656564732062604482015265616c616e636560d01b6064820152608401610bb7565b6001600160a01b03808516600090815260208190526040808220858503905591851681529081208054849290611cd4908490613340565b92505081905550826001600160a01b0316846001600160a01b03167fddf252ad1be2c89b69c2b068fc378daa952ba7f163c4a11628f55a4df523b3ef84604051611d2091815260200190565b60405180910390a3611b598484846122f1565b6000306001600160a01b037f000000000000000000000000000000000000000000000000000000000000000016148015611d8c57507f000000000000000000000000000000000000000000000000000000000000000046145b15611db657507f000000000000000000000000000000000000000000000000000000000000000090565b50604080517f00000000000000000000000000000000000000000000000000000000000000006020808301919091527f0000000000000000000000000000000000000000000000000000000000000000828401527f000000000000000000000000000000000000000000000000000000000000000060608301524660808301523060a0808401919091528351808403909101815260c0909201909252805191012090565b8154600090815b81811015611ebe576000611e75828461238d565b905084868281548110611e8a57611e8a613353565b60009182526020909120015463ffffffff161115611eaa57809250611eb8565b611eb5816001613340565b91505b50611e61565b8115611f025784611ed060018461349c565b81548110611ee057611ee0613353565b60009182526020909120015464010000000090046001600160e01b0316611f05565b60005b6001600160e01b031695945050505050565b6009546001600160a01b03163314610d3f5760405162461bcd60e51b815260206004820181905260248201527f4f776e61626c653a2063616c6c6572206973206e6f7420746865206f776e65726044820152606401610bb7565b610d5782826123a8565b6001600160a01b038281166000818152600660208181526040808420805485845282862054949093528787167fffffffffffffffffffffffff00000000000000000000000000000000000000008416811790915590519190951694919391928592917f3134e8a2e6d97e929a7e54011ea5485d7d196dd5f0ba4d4ef95803e8e3fc257f9190a4611b5982848361243f565b600063ffffffff8211156120885760405162461bcd60e51b815260206004820152602660248201527f53616665436173743a2076616c756520646f65736e27742066697420696e203360448201527f32206269747300000000000000000000000000000000000000000000000000006064820152608401610bb7565b5090565b600980546001600160a01b038381167fffffffffffffffffffffffff0000000000000000000000000000000000000000831681179093556040519116919082907f8be0079c531659141344cd1fd0a4f28419497f9722a3daafe3b4186f6b6457e090600090a35050565b6121216040518060800160405280600081526020016000815260200160008152602001600081525090565b600061216486868080601f016020809104026020016040519081016040528093929190818152602001838380828437600092019190915250889250610ef3915050565b905060008361217457600061217a565b81606001515b82604001516121899190613340565b90506000612198600a83613463565b90506121b033600c546001600160a01b03168361257c565b6121cf33600b546001600160a01b03166121ca848661349c565b61257c565b600b54600c54604085810151606087015191516001600160a01b0394851694909316927f661ffcd7cf5e1a9ef117a15590db5cf7ccd1b5ea8abed743eedb847e21b7bdda92612224928e928e92908d90613707565b60405180910390a350909695505050505050565b6000610970612245611d33565b836040517f19010000000000000000000000000000000000000000000000000000000000006020820152602281018390526042810182905260009060620160405160208183030381529060405280519060200120905092915050565b60008060006122b28787878761274b565b915091506122bf8161280f565b5095945050505050565b6001600160a01b03811660009081526005602052604090208054600181018255905b50919050565b6122fc838383612974565b600b546001600160a01b0390811690831603610c5057600b546040517f40c10f190000000000000000000000000000000000000000000000000000000081526001600160a01b03858116600483015260248201849052909116906340c10f1990604401600060405180830381600087803b15801561237957600080fd5b505af11580156114d0573d6000803e3d6000fd5b600061239c6002848418613463565b610be290848416613340565b6123b282826129a6565b6002546001600160e01b0310156124315760405162461bcd60e51b815260206004820152603060248201527f4552433230566f7465733a20746f74616c20737570706c79207269736b73206f60448201527f766572666c6f77696e6720766f746573000000000000000000000000000000006064820152608401610bb7565b611b596008612a8583612a91565b816001600160a01b0316836001600160a01b0316141580156124615750600081115b15610c50576001600160a01b038316156124ef576001600160a01b0383166000908152600760205260408120819061249c90612c0a85612a91565b91509150846001600160a01b03167fdec2bacdd2f05b59de34da9b523dff8be42e5e38e818c82fdb0bae774387a72483836040516124e4929190918252602082015260400190565b60405180910390a250505b6001600160a01b03821615610c50576001600160a01b0382166000908152600760205260408120819061252590612a8585612a91565b91509150836001600160a01b03167fdec2bacdd2f05b59de34da9b523dff8be42e5e38e818c82fdb0bae774387a724838360405161256d929190918252602082015260400190565b60405180910390a25050505050565b6001600160a01b0383166125e05760405162461bcd60e51b815260206004820152602560248201527f45524332303a207472616e736665722066726f6d20746865207a65726f206164604482015264647265737360d81b6064820152608401610bb7565b6001600160a01b0382166126425760405162461bcd60e51b815260206004820152602360248201527f45524332303a207472616e7366657220746f20746865207a65726f206164647260448201526265737360e81b6064820152608401610bb7565b6001600160a01b038316600090815260208190526040902054818110156126ba5760405162461bcd60e51b815260206004820152602660248201527f45524332303a207472616e7366657220616d6f756e7420657863656564732062604482015265616c616e636560d01b6064820152608401610bb7565b6001600160a01b038085166000908152602081905260408082208585039055918516815290812080548492906126f1908490613340565b92505081905550826001600160a01b0316846001600160a01b03167fddf252ad1be2c89b69c2b068fc378daa952ba7f163c4a11628f55a4df523b3ef8460405161273d91815260200190565b60405180910390a350505050565b6000807f7fffffffffffffffffffffffffffffff5d576e7357a4501ddfe92f46681b20a08311156127825750600090506003612806565b6040805160008082526020820180845289905260ff881692820192909252606081018690526080810185905260019060a0016020604051602081039080840390855afa1580156127d6573d6000803e3d6000fd5b5050604051601f1901519150506001600160a01b0381166127ff57600060019250925050612806565b9150600090505b94509492505050565b60008160048111156128235761282361373a565b0361282b5750565b600181600481111561283f5761283f61373a565b0361288c5760405162461bcd60e51b815260206004820152601860248201527f45434453413a20696e76616c6964207369676e617475726500000000000000006044820152606401610bb7565b60028160048111156128a0576128a061373a565b036128ed5760405162461bcd60e51b815260206004820152601f60248201527f45434453413a20696e76616c6964207369676e6174757265206c656e677468006044820152606401610bb7565b60038160048111156129015761290161373a565b03610c5f5760405162461bcd60e51b815260206004820152602260248201527f45434453413a20696e76616c6964207369676e6174757265202773272076616c60448201527f75650000000000000000000000000000000000000000000000000000000000006064820152608401610bb7565b6001600160a01b03838116600090815260066020526040808220548584168352912054610c509291821691168361243f565b6001600160a01b0382166129fc5760405162461bcd60e51b815260206004820152601f60248201527f45524332303a206d696e7420746f20746865207a65726f2061646472657373006044820152606401610bb7565b8060026000828254612a0e9190613340565b90915550506001600160a01b03821660009081526020819052604081208054839290612a3b908490613340565b90915550506040518181526001600160a01b038316906000907fddf252ad1be2c89b69c2b068fc378daa952ba7f163c4a11628f55a4df523b3ef9060200160405180910390a35050565b6000610be28284613340565b825460009081908015612adc5785612aaa60018361349c565b81548110612aba57612aba613353565b60009182526020909120015464010000000090046001600160e01b0316612adf565b60005b6001600160e01b03169250612af883858763ffffffff16565b9150600081118015612b3657504386612b1260018461349c565b81548110612b2257612b22613353565b60009182526020909120015463ffffffff16145b15612b9657612b4482612c16565b86612b5060018461349c565b81548110612b6057612b60613353565b9060005260206000200160000160046101000a8154816001600160e01b0302191690836001600160e01b03160217905550612c01565b856040518060400160405280612bab4361200c565b63ffffffff168152602001612bbf85612c16565b6001600160e01b0390811690915282546001810184556000938452602093849020835194909301519091166401000000000263ffffffff909316929092179101555b50935093915050565b6000610be2828461349c565b60006001600160e01b038211156120885760405162461bcd60e51b815260206004820152602760248201527f53616665436173743a2076616c756520646f65736e27742066697420696e203260448201527f32342062697473000000000000000000000000000000000000000000000000006064820152608401610bb7565b600060208284031215612ca757600080fd5b81356001600160e01b031981168114610be257600080fd5b6000815180845260005b81811015612ce557602081850181015186830182015201612cc9565b506000602082860101526020601f19601f83011685010191505092915050565b602081526000610be26020830184612cbf565b80356001600160a01b0381168114612d2f57600080fd5b919050565b60008060408385031215612d4757600080fd5b612d5083612d18565b946020939093013593505050565b600080600060608486031215612d7357600080fd5b612d7c84612d18565b9250612d8a60208501612d18565b9150604084013590509250925092565b60008083601f840112612dac57600080fd5b50813567ffffffffffffffff811115612dc457600080fd5b6020830191508360208260051b8501011115612ddf57600080fd5b9250929050565b600080600060408486031215612dfb57600080fd5b833567ffffffffffffffff811115612e1257600080fd5b612e1e86828701612d9a565b909790965060209590950135949350505050565b600060208284031215612e4457600080fd5b610be282612d18565b634e487b7160e01b600052604160045260246000fd5b600082601f830112612e7457600080fd5b813567ffffffffffffffff80821115612e8f57612e8f612e4d565b604051601f8301601f19908116603f01168101908282118183101715612eb757612eb7612e4d565b81604052838152866020858801011115612ed057600080fd5b836020870160208301376000602085830101528094505050505092915050565b8015158114610c5f57600080fd5b803561ffff81168114612d2f57600080fd5b60008060008060008060008060006101008a8c031215612f2f57600080fd5b893567ffffffffffffffff80821115612f4757600080fd5b612f538d838e01612e63565b9a50612f6160208d01612d18565b995060408c0135985060608c01359750612f7d60808d01612d18565b965060a08c0135915080821115612f9357600080fd5b50612fa08c828d01612d9a565b90955093505060c08a0135612fb481612ef0565b9150612fc260e08b01612efe565b90509295985092959850929598565b600060208284031215612fe357600080fd5b5035919050565b60008083601f840112612ffc57600080fd5b50813567ffffffffffffffff81111561301457600080fd5b602083019150836020828501011115612ddf57600080fd5b6000806000806000806000806000806101008b8d03121561304c57600080fd5b8a3567ffffffffffffffff8082111561306457600080fd5b6130708e838f01612fea565b909c509a508a915061308460208e01612d18565b995060408d0135985060608d013597506130a060808e01612d18565b965060a08d01359150808211156130b657600080fd5b506130c38d828e01612d9a565b90955093505060c08b01356130d781612ef0565b91506130e560e08c01612efe565b90509295989b9194979a5092959850565b6000806040838503121561310957600080fd5b823567ffffffffffffffff81111561312057600080fd5b61312c85828601612e63565b95602094909401359450505050565b60008060006040848603121561315057600080fd5b833567ffffffffffffffff81111561316757600080fd5b612e1e86828701612fea565b60006020828403121561318557600080fd5b813567ffffffffffffffff81111561319c57600080fd5b6131a884828501612e63565b949350505050565b803560ff81168114612d2f57600080fd5b60008060008060008060c087890312156131da57600080fd5b6131e387612d18565b955060208701359450604087013593506131ff606088016131b0565b92506080870135915060a087013590509295509295509295565b600080600080600080600060e0888a03121561323457600080fd5b61323d88612d18565b965061324b60208901612d18565b95506040880135945060608801359350613267608089016131b0565b925060a0880135915060c0880135905092959891949750929550565b6000806040838503121561329657600080fd5b61329f83612d18565b91506132ad60208401612d18565b90509250929050565b600080604083850312156132c957600080fd5b6132d283612d18565b9150602083013563ffffffff811681146132eb57600080fd5b809150509250929050565b600181811c9082168061330a57607f821691505b6020821081036122eb57634e487b7160e01b600052602260045260246000fd5b634e487b7160e01b600052601160045260246000fd5b808201808211156109705761097061332a565b634e487b7160e01b600052603260045260246000fd5b6000808335601e1984360301811261338057600080fd5b83018035915067ffffffffffffffff82111561339b57600080fd5b602001915036819003821315612ddf57600080fd5b81835281816020850137506000828201602090810191909152601f909101601f19169091010190565b6040815260006133ed6040830185876133b0565b9050826020830152949350505050565b60006080828403121561340f57600080fd5b6040516080810181811067ffffffffffffffff8211171561343257613432612e4d565b8060405250825181526020830151602082015260408301516040820152606083015160608201528091505092915050565b60008261348057634e487b7160e01b600052601260045260246000fd5b500490565b80820281158282048414176109705761097061332a565b818103818111156109705761097061332a565b81835260006020808501808196508560051b810191508460005b878110156135345782840389528135601e198836030181126134ea57600080fd5b8701858101903567ffffffffffffffff81111561350657600080fd5b80360382131561351557600080fd5b6135208682846133b0565b9a87019a95505050908401906001016134c9565b5091979650505050505050565b60006101008083526135558184018d612cbf565b90506001600160a01b03808c1660208501528a604085015289606085015280891660808501525082810360a084015261358f8187896134af565b94151560c0840152505061ffff9190911660e090910152979650505050505050565b6000602082840312156135c357600080fd5b5051919050565b60006101008083526135df8184018d8f6133b0565b90506001600160a01b03808c1660208501528a604085015289606085015280891660808501525082810360a08401526136198187896134af565b94151560c0840152505061ffff9190911660e09091015298975050505050505050565b8183823760009101908152919050565b6080815260006136606080830187896133b0565b602083019590955250604081019290925260609091015292915050565b6040815260006136906040830185612cbf565b90508260208301529392505050565b600080604083850312156136b257600080fd5b505080516020909101519092909150565b6060815260006136d76060830186886133b0565b6020830194909452506040015292915050565b6000602082840312156136fc57600080fd5b8151610be281612ef0565b60808152600061371b6080830187896133b0565b6020830195909552506040810192909252151560609091015292915050565b634e487b7160e01b600052602160045260246000fdfea26469706673582212209c1c12005202ae6a7c445e66236622747da6041e1b53a9af85701f0e2ae4ce4764736f6c63430008110033",
  "devdoc": {
    "kind": "dev",
    "methods": {
      "DOMAIN_SEPARATOR()": {
        "details": "See {IERC20Permit-DOMAIN_SEPARATOR}."
      },
      "allowance(address,address)": {
        "details": "See {IERC20-allowance}."
      },
      "approve(address,uint256)": {
        "details": "See {IERC20-approve}. NOTE: If `amount` is the maximum `uint256`, the allowance is not updated on `transferFrom`. This is semantically equivalent to an infinite approval. Requirements: - `spender` cannot be the zero address."
      },
      "balanceOf(address)": {
        "details": "See {IERC20-balanceOf}."
      },
      "checkpoints(address,uint32)": {
        "details": "Get the `pos`-th checkpoint for `account`."
      },
      "constructor": {
        "details": "Constructor."
      },
      "decimals()": {
        "details": "Returns the number of decimals used to get its user representation. For example, if `decimals` equals `2`, a balance of `505` tokens should be displayed to a user as `5.05` (`505 / 10 ** 2`). Tokens usually opt for a value of 18, imitating the relationship between Ether and Wei. This is the value {ERC20} uses, unless this function is overridden; NOTE: This information is only used for _display_ purposes: it in no way affects any of the arithmetic of the contract, including {IERC20-balanceOf} and {IERC20-transfer}."
      },
      "decreaseAllowance(address,uint256)": {
        "details": "Atomically decreases the allowance granted to `spender` by the caller. This is an alternative to {approve} that can be used as a mitigation for problems described in {IERC20-approve}. Emits an {Approval} event indicating the updated allowance. Requirements: - `spender` cannot be the zero address. - `spender` must have allowance for the caller of at least `subtractedValue`."
      },
      "delegate(address)": {
        "details": "Delegate votes from the sender to `delegatee`."
      },
      "delegateBySig(address,uint256,uint256,uint8,bytes32,bytes32)": {
        "details": "Delegates votes from signer to `delegatee`"
      },
      "delegates(address)": {
        "details": "Get the address `account` is currently delegating to."
      },
      "getPastTotalSupply(uint256)": {
        "details": "Retrieve the `totalSupply` at the end of `blockNumber`. Note, this value is the sum of all balances. It is but NOT the sum of all the delegated votes! Requirements: - `blockNumber` must have been already mined"
      },
      "getPastVotes(address,uint256)": {
        "details": "Retrieve the number of votes for `account` at the end of `blockNumber`. Requirements: - `blockNumber` must have been already mined"
      },
      "getVotes(address)": {
        "details": "Gets the current votes balance for `account`"
      },
      "increaseAllowance(address,uint256)": {
        "details": "Atomically increases the allowance granted to `spender` by the caller. This is an alternative to {approve} that can be used as a mitigation for problems described in {IERC20-approve}. Emits an {Approval} event indicating the updated allowance. Requirements: - `spender` cannot be the zero address."
      },
      "mint(address,uint256)": {
        "details": "Mints new tokens.",
        "params": {
          "amount": "The quantity of tokens to mint.",
          "dest": "The address to mint the new tokens to."
        }
      },
      "name()": {
        "details": "Returns the name of the token."
      },
      "nonces(address)": {
        "details": "See {IERC20Permit-nonces}."
      },
      "numCheckpoints(address)": {
        "details": "Get number of checkpoints for `account`."
      },
      "owner()": {
        "details": "Returns the address of the current owner."
      },
      "permit(address,address,uint256,uint256,uint8,bytes32,bytes32)": {
        "details": "See {IERC20Permit-permit}."
      },
      "renounceOwnership()": {
        "details": "Leaves the contract without owner. It will not be possible to call `onlyOwner` functions anymore. Can only be called by the current owner. NOTE: Renouncing ownership will leave the contract without an owner, thereby removing any functionality that is only available to the owner."
      },
      "symbol()": {
        "details": "Returns the symbol of the token, usually a shorter version of the name."
      },
      "totalSupply()": {
        "details": "See {IERC20-totalSupply}."
      },
      "transfer(address,uint256)": {
        "details": "See {IERC20-transfer}. Requirements: - `to` cannot be the zero address. - the caller must have a balance of at least `amount`."
      },
      "transferFrom(address,address,uint256)": {
        "details": "See {IERC20-transferFrom}. Emits an {Approval} event indicating the updated allowance. This is not required by the EIP. See the note at the beginning of {ERC20}. NOTE: Does not update the allowance if the current allowance is the maximum `uint256`. Requirements: - `from` and `to` cannot be the zero address. - `from` must have a balance of at least `amount`. - the caller must have allowance for ``from``'s tokens of at least `amount`."
      },
      "transferOwnership(address)": {
        "details": "Transfers ownership of the contract to a new account (`newOwner`). Can only be called by the current owner."
      }
    },
    "version": 1
  },
  "userdoc": {
    "kind": "user",
    "methods": {},
    "notice": "An ERC20 token for FNS.      All tokens are derived from airdrops of Filecoin domain names",
    "version": 1
  },
  "storageLayout": {
    "storage": [
      {
        "astId": 20052,
        "contract": "contracts/token/FNSToken.sol:FNSToken",
        "label": "_balances",
        "offset": 0,
        "slot": "0",
        "type": "t_mapping(t_address,t_uint256)"
      },
      {
        "astId": 20058,
        "contract": "contracts/token/FNSToken.sol:FNSToken",
        "label": "_allowances",
        "offset": 0,
        "slot": "1",
        "type": "t_mapping(t_address,t_mapping(t_address,t_uint256))"
      },
      {
        "astId": 20060,
        "contract": "contracts/token/FNSToken.sol:FNSToken",
        "label": "_totalSupply",
        "offset": 0,
        "slot": "2",
        "type": "t_uint256"
      },
      {
        "astId": 20062,
        "contract": "contracts/token/FNSToken.sol:FNSToken",
        "label": "_name",
        "offset": 0,
        "slot": "3",
        "type": "t_string_storage"
      },
      {
        "astId": 20064,
        "contract": "contracts/token/FNSToken.sol:FNSToken",
        "label": "_symbol",
        "offset": 0,
        "slot": "4",
        "type": "t_string_storage"
      },
      {
        "astId": 20693,
        "contract": "contracts/token/FNSToken.sol:FNSToken",
        "label": "_nonces",
        "offset": 0,
        "slot": "5",
        "type": "t_mapping(t_address,t_struct(Counter)2828_storage)"
      },
      {
        "astId": 20865,
        "contract": "contracts/token/FNSToken.sol:FNSToken",
        "label": "_delegates",
        "offset": 0,
        "slot": "6",
        "type": "t_mapping(t_address,t_address)"
      },
      {
        "astId": 20871,
        "contract": "contracts/token/FNSToken.sol:FNSToken",
        "label": "_checkpoints",
        "offset": 0,
        "slot": "7",
        "type": "t_mapping(t_address,t_array(t_struct(Checkpoint)20856_storage)dyn_storage)"
      },
      {
        "astId": 20875,
        "contract": "contracts/token/FNSToken.sol:FNSToken",
        "label": "_totalSupplyCheckpoints",
        "offset": 0,
        "slot": "8",
        "type": "t_array(t_struct(Checkpoint)20856_storage)dyn_storage"
      },
      {
        "astId": 7,
        "contract": "contracts/token/FNSToken.sol:FNSToken",
        "label": "_owner",
        "offset": 0,
        "slot": "9",
        "type": "t_address"
      },
      {
        "astId": 21511,
        "contract": "contracts/token/FNSToken.sol:FNSToken",
        "label": "controller",
        "offset": 0,
        "slot": "10",
        "type": "t_contract(IRegistrarControllerFns)14445"
      },
      {
        "astId": 21514,
        "contract": "contracts/token/FNSToken.sol:FNSToken",
        "label": "sunday",
        "offset": 0,
        "slot": "11",
        "type": "t_contract(Sunday)22800"
      },
      {
        "astId": 21517,
        "contract": "contracts/token/FNSToken.sol:FNSToken",
        "label": "receiver",
        "offset": 0,
        "slot": "12",
        "type": "t_contract(Receiver)22289"
      }
    ],
    "types": {
      "t_address": {
        "encoding": "inplace",
        "label": "address",
        "numberOfBytes": "20"
      },
      "t_array(t_struct(Checkpoint)20856_storage)dyn_storage": {
        "base": "t_struct(Checkpoint)20856_storage",
        "encoding": "dynamic_array",
        "label": "struct FERC20Votes.Checkpoint[]",
        "numberOfBytes": "32"
      },
      "t_contract(IRegistrarControllerFns)14445": {
        "encoding": "inplace",
        "label": "contract IRegistrarControllerFns",
        "numberOfBytes": "20"
      },
      "t_contract(Receiver)22289": {
        "encoding": "inplace",
        "label": "contract Receiver",
        "numberOfBytes": "20"
      },
      "t_contract(Sunday)22800": {
        "encoding": "inplace",
        "label": "contract Sunday",
        "numberOfBytes": "20"
      },
      "t_mapping(t_address,t_address)": {
        "encoding": "mapping",
        "key": "t_address",
        "label": "mapping(address => address)",
        "numberOfBytes": "32",
        "value": "t_address"
      },
      "t_mapping(t_address,t_array(t_struct(Checkpoint)20856_storage)dyn_storage)": {
        "encoding": "mapping",
        "key": "t_address",
        "label": "mapping(address => struct FERC20Votes.Checkpoint[])",
        "numberOfBytes": "32",
        "value": "t_array(t_struct(Checkpoint)20856_storage)dyn_storage"
      },
      "t_mapping(t_address,t_mapping(t_address,t_uint256))": {
        "encoding": "mapping",
        "key": "t_address",
        "label": "mapping(address => mapping(address => uint256))",
        "numberOfBytes": "32",
        "value": "t_mapping(t_address,t_uint256)"
      },
      "t_mapping(t_address,t_struct(Counter)2828_storage)": {
        "encoding": "mapping",
        "key": "t_address",
        "label": "mapping(address => struct Counters.Counter)",
        "numberOfBytes": "32",
        "value": "t_struct(Counter)2828_storage"
      },
      "t_mapping(t_address,t_uint256)": {
        "encoding": "mapping",
        "key": "t_address",
        "label": "mapping(address => uint256)",
        "numberOfBytes": "32",
        "value": "t_uint256"
      },
      "t_string_storage": {
        "encoding": "bytes",
        "label": "string",
        "numberOfBytes": "32"
      },
      "t_struct(Checkpoint)20856_storage": {
        "encoding": "inplace",
        "label": "struct FERC20Votes.Checkpoint",
        "members": [
          {
            "astId": 20853,
            "contract": "contracts/token/FNSToken.sol:FNSToken",
            "label": "fromBlock",
            "offset": 0,
            "slot": "0",
            "type": "t_uint32"
          },
          {
            "astId": 20855,
            "contract": "contracts/token/FNSToken.sol:FNSToken",
            "label": "votes",
            "offset": 4,
            "slot": "0",
            "type": "t_uint224"
          }
        ],
        "numberOfBytes": "32"
      },
      "t_struct(Counter)2828_storage": {
        "encoding": "inplace",
        "label": "struct Counters.Counter",
        "members": [
          {
            "astId": 2827,
            "contract": "contracts/token/FNSToken.sol:FNSToken",
            "label": "_value",
            "offset": 0,
            "slot": "0",
            "type": "t_uint256"
          }
        ],
        "numberOfBytes": "32"
      },
      "t_uint224": {
        "encoding": "inplace",
        "label": "uint224",
        "numberOfBytes": "28"
      },
      "t_uint256": {
        "encoding": "inplace",
        "label": "uint256",
        "numberOfBytes": "32"
      },
      "t_uint32": {
        "encoding": "inplace",
        "label": "uint32",
        "numberOfBytes": "4"
      }
    }
  }
}