{
  "address": "0x118Ee6452E20cF0CC672ef0765d284c92EeF0949",
  "abi": [
    {
      "inputs": [
        {
          "internalType": "contract FNS",
          "name": "_fns",
          "type": "address"
        },
        {
          "internalType": "address",
          "name": "_fnsToken",
          "type": "address"
        }
      ],
      "stateMutability": "nonpayable",
      "type": "constructor"
    },
    {
      "anonymous": false,
      "inputs": [
        {
          "indexed": true,
          "internalType": "address",
          "name": "owner",
          "type": "address"
        },
        {
          "indexed": true,
          "internalType": "address",
          "name": "spender",
          "type": "address"
        },
        {
          "indexed": false,
          "internalType": "uint256",
          "name": "value",
          "type": "uint256"
        }
      ],
      "name": "Approval",
      "type": "event"
    },
    {
      "anonymous": false,
      "inputs": [
        {
          "indexed": true,
          "internalType": "uint256",
          "name": "tokenId",
          "type": "uint256"
        },
        {
          "indexed": true,
          "internalType": "address",
          "name": "addr",
          "type": "address"
        },
        {
          "indexed": false,
          "internalType": "uint64",
          "name": "week",
          "type": "uint64"
        },
        {
          "indexed": false,
          "internalType": "uint256",
          "name": "fil",
          "type": "uint256"
        },
        {
          "indexed": false,
          "internalType": "uint256",
          "name": "fns",
          "type": "uint256"
        }
      ],
      "name": "Earnings",
      "type": "event"
    },
    {
      "anonymous": false,
      "inputs": [
        {
          "indexed": false,
          "internalType": "uint64",
          "name": "week",
          "type": "uint64"
        },
        {
          "indexed": false,
          "internalType": "uint256",
          "name": "fil",
          "type": "uint256"
        },
        {
          "indexed": false,
          "internalType": "uint256",
          "name": "fns",
          "type": "uint256"
        }
      ],
      "name": "Init",
      "type": "event"
    },
    {
      "anonymous": false,
      "inputs": [
        {
          "indexed": true,
          "internalType": "address",
          "name": "previousOwner",
          "type": "address"
        },
        {
          "indexed": true,
          "internalType": "address",
          "name": "newOwner",
          "type": "address"
        }
      ],
      "name": "OwnershipTransferred",
      "type": "event"
    },
    {
      "anonymous": false,
      "inputs": [
        {
          "indexed": false,
          "internalType": "address",
          "name": "account",
          "type": "address"
        }
      ],
      "name": "Paused",
      "type": "event"
    },
    {
      "anonymous": false,
      "inputs": [
        {
          "indexed": true,
          "internalType": "address",
          "name": "from",
          "type": "address"
        },
        {
          "indexed": true,
          "internalType": "address",
          "name": "to",
          "type": "address"
        },
        {
          "indexed": false,
          "internalType": "uint256",
          "name": "value",
          "type": "uint256"
        }
      ],
      "name": "Transfer",
      "type": "event"
    },
    {
      "anonymous": false,
      "inputs": [
        {
          "indexed": false,
          "internalType": "address",
          "name": "account",
          "type": "address"
        }
      ],
      "name": "Unpaused",
      "type": "event"
    },
    {
      "inputs": [
        {
          "internalType": "address",
          "name": "owner",
          "type": "address"
        },
        {
          "internalType": "address",
          "name": "spender",
          "type": "address"
        }
      ],
      "name": "allowance",
      "outputs": [
        {
          "internalType": "uint256",
          "name": "",
          "type": "uint256"
        }
      ],
      "stateMutability": "view",
      "type": "function"
    },
    {
      "inputs": [
        {
          "internalType": "address",
          "name": "spender",
          "type": "address"
        },
        {
          "internalType": "uint256",
          "name": "amount",
          "type": "uint256"
        }
      ],
      "name": "approve",
      "outputs": [
        {
          "internalType": "bool",
          "name": "",
          "type": "bool"
        }
      ],
      "stateMutability": "nonpayable",
      "type": "function"
    },
    {
      "inputs": [
        {
          "internalType": "address",
          "name": "account",
          "type": "address"
        }
      ],
      "name": "balanceOf",
      "outputs": [
        {
          "internalType": "uint256",
          "name": "",
          "type": "uint256"
        }
      ],
      "stateMutability": "view",
      "type": "function"
    },
    {
      "inputs": [
        {
          "internalType": "uint256",
          "name": "tokenId",
          "type": "uint256"
        }
      ],
      "name": "claimEarnings",
      "outputs": [],
      "stateMutability": "nonpayable",
      "type": "function"
    },
    {
      "inputs": [],
      "name": "day",
      "outputs": [
        {
          "internalType": "uint64",
          "name": "",
          "type": "uint64"
        }
      ],
      "stateMutability": "view",
      "type": "function"
    },
    {
      "inputs": [],
      "name": "decimals",
      "outputs": [
        {
          "internalType": "uint8",
          "name": "",
          "type": "uint8"
        }
      ],
      "stateMutability": "view",
      "type": "function"
    },
    {
      "inputs": [
        {
          "internalType": "address",
          "name": "spender",
          "type": "address"
        },
        {
          "internalType": "uint256",
          "name": "subtractedValue",
          "type": "uint256"
        }
      ],
      "name": "decreaseAllowance",
      "outputs": [
        {
          "internalType": "bool",
          "name": "",
          "type": "bool"
        }
      ],
      "stateMutability": "nonpayable",
      "type": "function"
    },
    {
      "inputs": [],
      "name": "fns",
      "outputs": [
        {
          "internalType": "contract FNS",
          "name": "",
          "type": "address"
        }
      ],
      "stateMutability": "view",
      "type": "function"
    },
    {
      "inputs": [
        {
          "internalType": "uint64",
          "name": "_week",
          "type": "uint64"
        },
        {
          "internalType": "address",
          "name": "addr",
          "type": "address"
        }
      ],
      "name": "getEarnings",
      "outputs": [
        {
          "components": [
            {
              "internalType": "uint256",
              "name": "fil",
              "type": "uint256"
            },
            {
              "internalType": "uint256",
              "name": "fns",
              "type": "uint256"
            },
            {
              "internalType": "bool",
              "name": "inited",
              "type": "bool"
            }
          ],
          "internalType": "struct Sunday.share",
          "name": "",
          "type": "tuple"
        }
      ],
      "stateMutability": "view",
      "type": "function"
    },
    {
      "inputs": [],
      "name": "getNameWrapper",
      "outputs": [
        {
          "internalType": "contract INameWrapper",
          "name": "",
          "type": "address"
        }
      ],
      "stateMutability": "view",
      "type": "function"
    },
    {
      "inputs": [
        {
          "internalType": "uint64",
          "name": "_week",
          "type": "uint64"
        }
      ],
      "name": "getShare",
      "outputs": [
        {
          "components": [
            {
              "internalType": "uint256",
              "name": "fil",
              "type": "uint256"
            },
            {
              "internalType": "uint256",
              "name": "fns",
              "type": "uint256"
            },
            {
              "internalType": "bool",
              "name": "inited",
              "type": "bool"
            }
          ],
          "internalType": "struct Sunday.share",
          "name": "",
          "type": "tuple"
        }
      ],
      "stateMutability": "view",
      "type": "function"
    },
    {
      "inputs": [
        {
          "internalType": "address",
          "name": "spender",
          "type": "address"
        },
        {
          "internalType": "uint256",
          "name": "addedValue",
          "type": "uint256"
        }
      ],
      "name": "increaseAllowance",
      "outputs": [
        {
          "internalType": "bool",
          "name": "",
          "type": "bool"
        }
      ],
      "stateMutability": "nonpayable",
      "type": "function"
    },
    {
      "inputs": [],
      "name": "initShare",
      "outputs": [
        {
          "internalType": "uint64",
          "name": "",
          "type": "uint64"
        }
      ],
      "stateMutability": "nonpayable",
      "type": "function"
    },
    {
      "inputs": [
        {
          "internalType": "address",
          "name": "dest",
          "type": "address"
        },
        {
          "internalType": "uint256",
          "name": "amount",
          "type": "uint256"
        }
      ],
      "name": "mint",
      "outputs": [],
      "stateMutability": "nonpayable",
      "type": "function"
    },
    {
      "inputs": [],
      "name": "name",
      "outputs": [
        {
          "internalType": "string",
          "name": "",
          "type": "string"
        }
      ],
      "stateMutability": "view",
      "type": "function"
    },
    {
      "inputs": [],
      "name": "owner",
      "outputs": [
        {
          "internalType": "address",
          "name": "",
          "type": "address"
        }
      ],
      "stateMutability": "view",
      "type": "function"
    },
    {
      "inputs": [],
      "name": "paused",
      "outputs": [
        {
          "internalType": "bool",
          "name": "",
          "type": "bool"
        }
      ],
      "stateMutability": "view",
      "type": "function"
    },
    {
      "inputs": [],
      "name": "renounceOwnership",
      "outputs": [],
      "stateMutability": "nonpayable",
      "type": "function"
    },
    {
      "inputs": [
        {
          "internalType": "bytes4",
          "name": "interfaceID",
          "type": "bytes4"
        }
      ],
      "name": "supportsInterface",
      "outputs": [
        {
          "internalType": "bool",
          "name": "",
          "type": "bool"
        }
      ],
      "stateMutability": "pure",
      "type": "function"
    },
    {
      "inputs": [],
      "name": "symbol",
      "outputs": [
        {
          "internalType": "string",
          "name": "",
          "type": "string"
        }
      ],
      "stateMutability": "view",
      "type": "function"
    },
    {
      "inputs": [],
      "name": "token",
      "outputs": [
        {
          "internalType": "contract IERC20",
          "name": "",
          "type": "address"
        }
      ],
      "stateMutability": "view",
      "type": "function"
    },
    {
      "inputs": [],
      "name": "totalSupply",
      "outputs": [
        {
          "internalType": "uint256",
          "name": "",
          "type": "uint256"
        }
      ],
      "stateMutability": "view",
      "type": "function"
    },
    {
      "inputs": [
        {
          "internalType": "address",
          "name": "to",
          "type": "address"
        },
        {
          "internalType": "uint256",
          "name": "amount",
          "type": "uint256"
        }
      ],
      "name": "transfer",
      "outputs": [
        {
          "internalType": "bool",
          "name": "",
          "type": "bool"
        }
      ],
      "stateMutability": "nonpayable",
      "type": "function"
    },
    {
      "inputs": [
        {
          "internalType": "address",
          "name": "from",
          "type": "address"
        },
        {
          "internalType": "address",
          "name": "to",
          "type": "address"
        },
        {
          "internalType": "uint256",
          "name": "amount",
          "type": "uint256"
        }
      ],
      "name": "transferFrom",
      "outputs": [
        {
          "internalType": "bool",
          "name": "",
          "type": "bool"
        }
      ],
      "stateMutability": "nonpayable",
      "type": "function"
    },
    {
      "inputs": [
        {
          "internalType": "address",
          "name": "newOwner",
          "type": "address"
        }
      ],
      "name": "transferOwnership",
      "outputs": [],
      "stateMutability": "nonpayable",
      "type": "function"
    },
    {
      "inputs": [],
      "name": "week",
      "outputs": [
        {
          "internalType": "uint64",
          "name": "",
          "type": "uint64"
        }
      ],
      "stateMutability": "view",
      "type": "function"
    },
    {
      "inputs": [
        {
          "internalType": "uint256",
          "name": "amount",
          "type": "uint256"
        }
      ],
      "name": "withdrawal",
      "outputs": [],
      "stateMutability": "nonpayable",
      "type": "function"
    },
    {
      "stateMutability": "payable",
      "type": "receive"
    }
  ],
  "transactionHash": "0x9cec9e6590cdeba300a5736707252b93f251529581f617427be29fce85af94d5",
  "args": [
    "0x0000000000Ec577Ad90e99CA7817e976e953C3bd",
    "0x8177dE00494d4757Ba1D954d189F60DF42A12FEe"
  ],
  "numDeployments": 1,
  "solcInputHash": "94c511ccef30681c8028349b05f9c84f",
  "bytecode": "0x60a06040523480156200001157600080fd5b50604051620021c9380380620021c9833981016040819052620000349162000143565b6040518060400160405280600681526020016553756e64617960d01b8152506040518060400160405280600381526020016229aaa760e91b815250816003908162000080919062000227565b5060046200008f828262000227565b50506005805460ff1916905550620000a733620000d0565b6001600160a01b03918216608052600880546001600160a01b03191691909216179055620002f3565b600580546001600160a01b03838116610100818102610100600160a81b031985161790945560405193909204169182907f8be0079c531659141344cd1fd0a4f28419497f9722a3daafe3b4186f6b6457e090600090a35050565b6001600160a01b03811681146200014057600080fd5b50565b600080604083850312156200015757600080fd5b825162000164816200012a565b602084015190925062000177816200012a565b809150509250929050565b634e487b7160e01b600052604160045260246000fd5b600181811c90821680620001ad57607f821691505b602082108103620001ce57634e487b7160e01b600052602260045260246000fd5b50919050565b601f8211156200022257600081815260208120601f850160051c81016020861015620001fd5750805b601f850160051c820191505b818110156200021e5782815560010162000209565b5050505b505050565b81516001600160401b0381111562000243576200024362000182565b6200025b8162000254845462000198565b84620001d4565b602080601f8311600181146200029357600084156200027a5750858301515b600019600386901b1c1916600185901b1785556200021e565b600085815260208120601f198616915b82811015620002c457888601518255948401946001909101908401620002a3565b5085821015620002e35787850151600019600388901b60f8161c191681555b5050505050600190811b01905550565b608051611eb362000316600039600081816104c30152610d230152611eb36000f3fe6080604052600436106101b05760003560e01c80635d7c2acf116100ec578063a457c2d71161008a578063dd62ed3e11610064578063dd62ed3e146104e5578063f2fde38b1461052b578063fc0c546a1461054b578063fdf395021461056b57600080fd5b8063a457c2d714610471578063a9059cbb14610491578063b382e4c5146104b157600080fd5b80637b76ac91116100c65780637b76ac9114610404578063835fc6ca146104195780638da5cb5b1461043957806395d89b411461045c57600080fd5b80635d7c2acf1461038c57806370a08231146103b9578063715018a6146103ef57600080fd5b806324b1babf1161015957806340c10f191161013357806340c10f19146103145780634995b458146103345780635a5213a4146103625780635c975abb1461037757600080fd5b806324b1babf146102b6578063313ce567146102d857806339509351146102f457600080fd5b806315a5f5191161018a57806315a5f5191461023357806318160ddd1461027757806323b872dd1461029657600080fd5b806301ffc9a7146101bc57806306fdde03146101f1578063095ea7b31461021357600080fd5b366101b757005b600080fd5b3480156101c857600080fd5b506101dc6101d7366004611b44565b61058b565b60405190151581526020015b60405180910390f35b3480156101fd57600080fd5b50610206610624565b6040516101e89190611b8d565b34801561021f57600080fd5b506101dc61022e366004611bf0565b6106b6565b34801561023f57600080fd5b5061025361024e366004611c39565b6106ce565b604080518251815260208084015190820152918101511515908201526060016101e8565b34801561028357600080fd5b506002545b6040519081526020016101e8565b3480156102a257600080fd5b506101dc6102b1366004611c70565b610773565b3480156102c257600080fd5b506102d66102d1366004611cb1565b610797565b005b3480156102e457600080fd5b50604051601281526020016101e8565b34801561030057600080fd5b506101dc61030f366004611bf0565b610ba6565b34801561032057600080fd5b506102d661032f366004611bf0565b610be5565b34801561034057600080fd5b50610349610bfb565b60405167ffffffffffffffff90911681526020016101e8565b34801561036e57600080fd5b50610349610c16565b34801561038357600080fd5b506101dc610ca9565b34801561039857600080fd5b506103a1610cd0565b6040516001600160a01b0390911681526020016101e8565b3480156103c557600080fd5b506102886103d4366004611cca565b6001600160a01b031660009081526020819052604090205490565b3480156103fb57600080fd5b506102d6610e60565b34801561041057600080fd5b50610349610e74565b34801561042557600080fd5b506102d6610434366004611cb1565b610e8e565b34801561044557600080fd5b5060055461010090046001600160a01b03166103a1565b34801561046857600080fd5b50610206610f15565b34801561047d57600080fd5b506101dc61048c366004611bf0565b610f24565b34801561049d57600080fd5b506101dc6104ac366004611bf0565b610fce565b3480156104bd57600080fd5b506103a17f000000000000000000000000000000000000000000000000000000000000000081565b3480156104f157600080fd5b50610288610500366004611ce7565b6001600160a01b03918216600090815260016020908152604080832093909416825291909152205490565b34801561053757600080fd5b506102d6610546366004611cca565b610fdc565b34801561055757600080fd5b506008546103a1906001600160a01b031681565b34801561057757600080fd5b50610253610586366004611d05565b611055565b60007fffffffff0000000000000000000000000000000000000000000000000000000082167f36372b0700000000000000000000000000000000000000000000000000000000148061061e57507fffffffff0000000000000000000000000000000000000000000000000000000082167fa219a02500000000000000000000000000000000000000000000000000000000145b92915050565b60606003805461063390611d20565b80601f016020809104026020016040519081016040528092919081815260200182805461065f90611d20565b80156106ac5780601f10610681576101008083540402835291602001916106ac565b820191906000526020600020905b81548152906001019060200180831161068f57829003601f168201915b5050505050905090565b6000336106c48185856110e5565b5060019392505050565b6106f4604051806060016040528060008152602001600081526020016000151581525090565b6007600067ffffffffffffffff85161561070e5784610716565b610716610bfb565b67ffffffffffffffff168152602080820192909252604090810160009081206001600160a01b038616825283528190208151606081018352815481526001820154938101939093526002015460ff16151590820152905092915050565b60003361078185828561123e565b61078c8585856112d0565b506001949350505050565b61079f6114c8565b60006107a9610cd0565b6040517f6352211e000000000000000000000000000000000000000000000000000000008152600481018490529091506000906001600160a01b03831690636352211e90602401602060405180830381865afa15801561080d573d6000803e3d6000fd5b505050506040513d601f19601f820116820180604052508101906108319190611d5a565b90506001600160a01b03811661089d5760405162461bcd60e51b815260206004820152602660248201527f53554e3a20636c61696d4561726e696e677320746f20746865207a65726f206160448201526564647265737360d01b60648201526084015b60405180910390fd5b60006108a7610bfb565b90506108b28161151c565b5067ffffffffffffffff811660009081526007602090815260408083206001600160a01b038616845290915290206002015460ff16156109345760405162461bcd60e51b815260206004820152601b60248201527f53554e3a20616c726561647920636c61696d206561726e696e677300000000006044820152606401610894565b600061093f60025490565b1161098c5760405162461bcd60e51b815260206004820152601c60248201527f53554e3a20746f74616c537570706c7920746f20746865207a65726f000000006044820152606401610894565b600061099760025490565b6001600160a01b03841660009081526020819052604090205467ffffffffffffffff84166000908152600660205260409020546109d49190611d8d565b6109de9190611dba565b90508015610a1e576040516001600160a01b0384169082156108fc029083906000818181858888f19350505050158015610a1c573d6000803e3d6000fd5b505b6000610a2960025490565b6001600160a01b03851660009081526020819052604090205467ffffffffffffffff8516600090815260066020526040902060010154610a699190611d8d565b610a739190611dba565b90508015610af45760085460405163a9059cbb60e01b81526001600160a01b038681166004830152602482018490529091169063a9059cbb906044016020604051808303816000875af1158015610ace573d6000803e3d6000fd5b505050506040513d601f19601f82011682018060405250810190610af29190611dce565b505b60408051606080820183528482526020808301858152600184860181815267ffffffffffffffff8a166000818152600786528881206001600160a01b038e168083529087529089902097518855935192870192909255516002909501805460ff191695151595909517909455845193845290830186905292820184905288917fad43791c7ea3cc534dc93ffcfab35f959d507853ca0f6b1ff68fb3028f6fa674910160405180910390a3505050505050565b3360008181526001602090815260408083206001600160a01b03871684529091528120549091906106c49082908690610be0908790611df0565b6110e5565b610bed611766565b610bf782826117c6565b5050565b60006007610c07610e74565b610c119190611e03565b905090565b6000610c206114c8565b6000610c2a610bfb565b67ffffffffffffffff811660009081526006602052604090206002015490915060ff1615610c9a5760405162461bcd60e51b815260206004820152600b60248201527f53554e3a20696e696e65640000000000000000000000000000000000000000006044820152606401610894565b610ca38161151c565b91505090565b60006007610cb5610e74565b610cbf9190611e2a565b67ffffffffffffffff161515919050565b6040517f0178b8bf0000000000000000000000000000000000000000000000000000000081527f78f6b1389af563cc5c91f234ea46b055e49658d8b999eeb9e0baef7dbbc93fdb600482015260009081907f00000000000000000000000000000000000000000000000000000000000000006001600160a01b031690630178b8bf90602401602060405180830381865afa158015610d72573d6000803e3d6000fd5b505050506040513d601f19601f82011682018060405250810190610d969190611d5a565b6040517f124a319c0000000000000000000000000000000000000000000000000000000081527f78f6b1389af563cc5c91f234ea46b055e49658d8b999eeb9e0baef7dbbc93fdb60048201527f4d6b2f7a0000000000000000000000000000000000000000000000000000000060248201529091506001600160a01b0382169063124a319c90604401602060405180830381865afa158015610e3c573d6000803e3d6000fd5b505050506040513d601f19601f82011682018060405250810190610ca39190611d5a565b610e68611766565b610e726000611891565b565b6000610e836201518042611dba565b610c11906004611df0565b610e96611902565b610ea03382611957565b60085460405163a9059cbb60e01b8152336004820152602481018390526001600160a01b039091169063a9059cbb906044016020604051808303816000875af1158015610ef1573d6000803e3d6000fd5b505050506040513d601f19601f82011682018060405250810190610bf79190611dce565b60606004805461063390611d20565b3360008181526001602090815260408083206001600160a01b038716845290915281205490919083811015610fc15760405162461bcd60e51b815260206004820152602560248201527f45524332303a2064656372656173656420616c6c6f77616e63652062656c6f7760448201527f207a65726f0000000000000000000000000000000000000000000000000000006064820152608401610894565b61078c82868684036110e5565b6000336106c48185856112d0565b610fe4611766565b6001600160a01b0381166110495760405162461bcd60e51b815260206004820152602660248201527f4f776e61626c653a206e6577206f776e657220697320746865207a65726f206160448201526564647265737360d01b6064820152608401610894565b61105281611891565b50565b61107b604051806060016040528060008152602001600081526020016000151581525090565b6006600067ffffffffffffffff841615611095578361109d565b61109d610bfb565b67ffffffffffffffff16815260208082019290925260409081016000208151606081018352815481526001820154938101939093526002015460ff1615159082015292915050565b6001600160a01b0383166111605760405162461bcd60e51b8152602060048201526024808201527f45524332303a20617070726f76652066726f6d20746865207a65726f2061646460448201527f72657373000000000000000000000000000000000000000000000000000000006064820152608401610894565b6001600160a01b0382166111dc5760405162461bcd60e51b815260206004820152602260248201527f45524332303a20617070726f766520746f20746865207a65726f20616464726560448201527f73730000000000000000000000000000000000000000000000000000000000006064820152608401610894565b6001600160a01b0383811660008181526001602090815260408083209487168084529482529182902085905590518481527f8c5be1e5ebec7d5bd14f71427d1e84f3dd0314c0f7b2291e5b200ac8c7c3b92591015b60405180910390a3505050565b6001600160a01b0383811660009081526001602090815260408083209386168352929052205460001981146112ca57818110156112bd5760405162461bcd60e51b815260206004820152601d60248201527f45524332303a20696e73756666696369656e7420616c6c6f77616e63650000006044820152606401610894565b6112ca84848484036110e5565b50505050565b6001600160a01b03831661134c5760405162461bcd60e51b815260206004820152602560248201527f45524332303a207472616e736665722066726f6d20746865207a65726f20616460448201527f64726573730000000000000000000000000000000000000000000000000000006064820152608401610894565b6001600160a01b0382166113c85760405162461bcd60e51b815260206004820152602360248201527f45524332303a207472616e7366657220746f20746865207a65726f206164647260448201527f65737300000000000000000000000000000000000000000000000000000000006064820152608401610894565b6113d3838383611ac9565b6001600160a01b038316600090815260208190526040902054818110156114625760405162461bcd60e51b815260206004820152602660248201527f45524332303a207472616e7366657220616d6f756e742065786365656473206260448201527f616c616e636500000000000000000000000000000000000000000000000000006064820152608401610894565b6001600160a01b03848116600081815260208181526040808320878703905593871680835291849020805487019055925185815290927fddf252ad1be2c89b69c2b068fc378daa952ba7f163c4a11628f55a4df523b3ef910160405180910390a36112ca565b6114d0610ca9565b610e725760405162461bcd60e51b815260206004820152601460248201527f5061757361626c653a206e6f74207061757365640000000000000000000000006044820152606401610894565b67ffffffffffffffff811660009081526006602052604081206002015460ff1615158103611762576000611551604047611dba565b905061155c60025490565b6008546040516370a0823160e01b81523060048201526001600160a01b03909116906370a0823190602401602060405180830381865afa1580156115a4573d6000803e3d6000fd5b505050506040513d601f19601f820116820180604052508101906115c89190611e51565b101561163c5760405162461bcd60e51b815260206004820152602160248201527f53554e3a2062616c616e6365206d7573742067746520746f74616c537570706c60448201527f79000000000000000000000000000000000000000000000000000000000000006064820152608401610894565b6000604061164960025490565b6008546040516370a0823160e01b81523060048201526001600160a01b03909116906370a0823190602401602060405180830381865afa158015611691573d6000803e3d6000fd5b505050506040513d601f19601f820116820180604052508101906116b59190611e51565b6116bf9190611e6a565b6116c99190611dba565b60408051606080820183528582526020808301858152600184860181815267ffffffffffffffff8c1660008181526006865288902096518755925191860191909155516002909401805460ff191694151594909417909355835192835282018690529181018390529192507fd64ebbd79c07545177ac0e52615f7b0a441615a711dc74d9538d2d3b0839effa910160405180910390a150505b5090565b6005546001600160a01b03610100909104163314610e725760405162461bcd60e51b815260206004820181905260248201527f4f776e61626c653a2063616c6c6572206973206e6f7420746865206f776e65726044820152606401610894565b6001600160a01b03821661181c5760405162461bcd60e51b815260206004820152601f60248201527f45524332303a206d696e7420746f20746865207a65726f2061646472657373006044820152606401610894565b61182860008383611ac9565b806002600082825461183a9190611df0565b90915550506001600160a01b038216600081815260208181526040808320805486019055518481527fddf252ad1be2c89b69c2b068fc378daa952ba7f163c4a11628f55a4df523b3ef910160405180910390a35050565b600580546001600160a01b038381166101008181027fffffffffffffffffffffff0000000000000000000000000000000000000000ff85161790945560405193909204169182907f8be0079c531659141344cd1fd0a4f28419497f9722a3daafe3b4186f6b6457e090600090a35050565b61190a610ca9565b15610e725760405162461bcd60e51b815260206004820152601060248201527f5061757361626c653a20706175736564000000000000000000000000000000006044820152606401610894565b6001600160a01b0382166119d35760405162461bcd60e51b815260206004820152602160248201527f45524332303a206275726e2066726f6d20746865207a65726f2061646472657360448201527f73000000000000000000000000000000000000000000000000000000000000006064820152608401610894565b6119df82600083611ac9565b6001600160a01b03821660009081526020819052604090205481811015611a6e5760405162461bcd60e51b815260206004820152602260248201527f45524332303a206275726e20616d6f756e7420657863656564732062616c616e60448201527f63650000000000000000000000000000000000000000000000000000000000006064820152608401610894565b6001600160a01b0383166000818152602081815260408083208686039055600280548790039055518581529192917fddf252ad1be2c89b69c2b068fc378daa952ba7f163c4a11628f55a4df523b3ef9101611231565b505050565b611ad1610ca9565b15611ac45760405162461bcd60e51b815260206004820152602a60248201527f45524332305061757361626c653a20746f6b656e207472616e7366657220776860448201527f696c6520706175736564000000000000000000000000000000000000000000006064820152608401610894565b600060208284031215611b5657600080fd5b81357fffffffff0000000000000000000000000000000000000000000000000000000081168114611b8657600080fd5b9392505050565b600060208083528351808285015260005b81811015611bba57858101830151858201604001528201611b9e565b506000604082860101526040601f19601f8301168501019250505092915050565b6001600160a01b038116811461105257600080fd5b60008060408385031215611c0357600080fd5b8235611c0e81611bdb565b946020939093013593505050565b803567ffffffffffffffff81168114611c3457600080fd5b919050565b60008060408385031215611c4c57600080fd5b611c5583611c1c565b91506020830135611c6581611bdb565b809150509250929050565b600080600060608486031215611c8557600080fd5b8335611c9081611bdb565b92506020840135611ca081611bdb565b929592945050506040919091013590565b600060208284031215611cc357600080fd5b5035919050565b600060208284031215611cdc57600080fd5b8135611b8681611bdb565b60008060408385031215611cfa57600080fd5b8235611c5581611bdb565b600060208284031215611d1757600080fd5b611b8682611c1c565b600181811c90821680611d3457607f821691505b602082108103611d5457634e487b7160e01b600052602260045260246000fd5b50919050565b600060208284031215611d6c57600080fd5b8151611b8681611bdb565b634e487b7160e01b600052601160045260246000fd5b808202811582820484141761061e5761061e611d77565b634e487b7160e01b600052601260045260246000fd5b600082611dc957611dc9611da4565b500490565b600060208284031215611de057600080fd5b81518015158114611b8657600080fd5b8082018082111561061e5761061e611d77565b600067ffffffffffffffff80841680611e1e57611e1e611da4565b92169190910492915050565b600067ffffffffffffffff80841680611e4557611e45611da4565b92169190910692915050565b600060208284031215611e6357600080fd5b5051919050565b8181038181111561061e5761061e611d7756fea2646970667358221220d8ee230aba8d33b8925bc762f47a8aec3db77db75ce369319ef78bf54a64cff564736f6c63430008110033",
  "devdoc": {
    "details": "An ERC20 token for FNS lock.",
    "kind": "dev",
    "methods": {
      "allowance(address,address)": {
        "details": "See {IERC20-allowance}."
      },
      "approve(address,uint256)": {
        "details": "See {IERC20-approve}. NOTE: If `amount` is the maximum `uint256`, the allowance is not updated on `transferFrom`. This is semantically equivalent to an infinite approval. Requirements: - `spender` cannot be the zero address."
      },
      "balanceOf(address)": {
        "details": "See {IERC20-balanceOf}."
      },
      "constructor": {
        "details": "Constructor."
      },
      "decimals()": {
        "details": "Returns the number of decimals used to get its user representation. For example, if `decimals` equals `2`, a balance of `505` tokens should be displayed to a user as `5.05` (`505 / 10 ** 2`). Tokens usually opt for a value of 18, imitating the relationship between Ether and Wei. This is the value {ERC20} uses, unless this function is overridden; NOTE: This information is only used for _display_ purposes: it in no way affects any of the arithmetic of the contract, including {IERC20-balanceOf} and {IERC20-transfer}."
      },
      "decreaseAllowance(address,uint256)": {
        "details": "Atomically decreases the allowance granted to `spender` by the caller. This is an alternative to {approve} that can be used as a mitigation for problems described in {IERC20-approve}. Emits an {Approval} event indicating the updated allowance. Requirements: - `spender` cannot be the zero address. - `spender` must have allowance for the caller of at least `subtractedValue`."
      },
      "increaseAllowance(address,uint256)": {
        "details": "Atomically increases the allowance granted to `spender` by the caller. This is an alternative to {approve} that can be used as a mitigation for problems described in {IERC20-approve}. Emits an {Approval} event indicating the updated allowance. Requirements: - `spender` cannot be the zero address."
      },
      "mint(address,uint256)": {
        "details": "Mints new tokens.",
        "params": {
          "amount": "The quantity of tokens to mint.",
          "dest": "The address to mint the new tokens to."
        }
      },
      "name()": {
        "details": "Returns the name of the token."
      },
      "owner()": {
        "details": "Returns the address of the current owner."
      },
      "paused()": {
        "details": "Returns true if the contract is paused, and false otherwise."
      },
      "renounceOwnership()": {
        "details": "Leaves the contract without owner. It will not be possible to call `onlyOwner` functions anymore. Can only be called by the current owner. NOTE: Renouncing ownership will leave the contract without an owner, thereby removing any functionality that is only available to the owner."
      },
      "symbol()": {
        "details": "Returns the symbol of the token, usually a shorter version of the name."
      },
      "totalSupply()": {
        "details": "See {IERC20-totalSupply}."
      },
      "transfer(address,uint256)": {
        "details": "See {IERC20-transfer}. Requirements: - `to` cannot be the zero address. - the caller must have a balance of at least `amount`."
      },
      "transferFrom(address,address,uint256)": {
        "details": "See {IERC20-transferFrom}. Emits an {Approval} event indicating the updated allowance. This is not required by the EIP. See the note at the beginning of {ERC20}. NOTE: Does not update the allowance if the current allowance is the maximum `uint256`. Requirements: - `from` and `to` cannot be the zero address. - `from` must have a balance of at least `amount`. - the caller must have allowance for ``from``'s tokens of at least `amount`."
      },
      "transferOwnership(address)": {
        "details": "Transfers ownership of the contract to a new account (`newOwner`). Can only be called by the current owner."
      }
    },
    "version": 1
  },
  "userdoc": {
    "kind": "user",
    "methods": {},
    "version": 1
  },
  "storageLayout": {
    "storage": [
      {
        "astId": 492,
        "contract": "contracts/token/Sunday.sol:Sunday",
        "label": "_balances",
        "offset": 0,
        "slot": "0",
        "type": "t_mapping(t_address,t_uint256)"
      },
      {
        "astId": 498,
        "contract": "contracts/token/Sunday.sol:Sunday",
        "label": "_allowances",
        "offset": 0,
        "slot": "1",
        "type": "t_mapping(t_address,t_mapping(t_address,t_uint256))"
      },
      {
        "astId": 500,
        "contract": "contracts/token/Sunday.sol:Sunday",
        "label": "_totalSupply",
        "offset": 0,
        "slot": "2",
        "type": "t_uint256"
      },
      {
        "astId": 502,
        "contract": "contracts/token/Sunday.sol:Sunday",
        "label": "_name",
        "offset": 0,
        "slot": "3",
        "type": "t_string_storage"
      },
      {
        "astId": 504,
        "contract": "contracts/token/Sunday.sol:Sunday",
        "label": "_symbol",
        "offset": 0,
        "slot": "4",
        "type": "t_string_storage"
      },
      {
        "astId": 208,
        "contract": "contracts/token/Sunday.sol:Sunday",
        "label": "_paused",
        "offset": 0,
        "slot": "5",
        "type": "t_bool"
      },
      {
        "astId": 7,
        "contract": "contracts/token/Sunday.sol:Sunday",
        "label": "_owner",
        "offset": 1,
        "slot": "5",
        "type": "t_address"
      },
      {
        "astId": 22324,
        "contract": "contracts/token/Sunday.sol:Sunday",
        "label": "_shares",
        "offset": 0,
        "slot": "6",
        "type": "t_mapping(t_uint64,t_struct(share)22316_storage)"
      },
      {
        "astId": 22331,
        "contract": "contracts/token/Sunday.sol:Sunday",
        "label": "_earnings",
        "offset": 0,
        "slot": "7",
        "type": "t_mapping(t_uint64,t_mapping(t_address,t_struct(share)22316_storage))"
      },
      {
        "astId": 22334,
        "contract": "contracts/token/Sunday.sol:Sunday",
        "label": "token",
        "offset": 0,
        "slot": "8",
        "type": "t_contract(IERC20)1141"
      }
    ],
    "types": {
      "t_address": {
        "encoding": "inplace",
        "label": "address",
        "numberOfBytes": "20"
      },
      "t_bool": {
        "encoding": "inplace",
        "label": "bool",
        "numberOfBytes": "1"
      },
      "t_contract(IERC20)1141": {
        "encoding": "inplace",
        "label": "contract IERC20",
        "numberOfBytes": "20"
      },
      "t_mapping(t_address,t_mapping(t_address,t_uint256))": {
        "encoding": "mapping",
        "key": "t_address",
        "label": "mapping(address => mapping(address => uint256))",
        "numberOfBytes": "32",
        "value": "t_mapping(t_address,t_uint256)"
      },
      "t_mapping(t_address,t_struct(share)22316_storage)": {
        "encoding": "mapping",
        "key": "t_address",
        "label": "mapping(address => struct Sunday.share)",
        "numberOfBytes": "32",
        "value": "t_struct(share)22316_storage"
      },
      "t_mapping(t_address,t_uint256)": {
        "encoding": "mapping",
        "key": "t_address",
        "label": "mapping(address => uint256)",
        "numberOfBytes": "32",
        "value": "t_uint256"
      },
      "t_mapping(t_uint64,t_mapping(t_address,t_struct(share)22316_storage))": {
        "encoding": "mapping",
        "key": "t_uint64",
        "label": "mapping(uint64 => mapping(address => struct Sunday.share))",
        "numberOfBytes": "32",
        "value": "t_mapping(t_address,t_struct(share)22316_storage)"
      },
      "t_mapping(t_uint64,t_struct(share)22316_storage)": {
        "encoding": "mapping",
        "key": "t_uint64",
        "label": "mapping(uint64 => struct Sunday.share)",
        "numberOfBytes": "32",
        "value": "t_struct(share)22316_storage"
      },
      "t_string_storage": {
        "encoding": "bytes",
        "label": "string",
        "numberOfBytes": "32"
      },
      "t_struct(share)22316_storage": {
        "encoding": "inplace",
        "label": "struct Sunday.share",
        "members": [
          {
            "astId": 22311,
            "contract": "contracts/token/Sunday.sol:Sunday",
            "label": "fil",
            "offset": 0,
            "slot": "0",
            "type": "t_uint256"
          },
          {
            "astId": 22313,
            "contract": "contracts/token/Sunday.sol:Sunday",
            "label": "fns",
            "offset": 0,
            "slot": "1",
            "type": "t_uint256"
          },
          {
            "astId": 22315,
            "contract": "contracts/token/Sunday.sol:Sunday",
            "label": "inited",
            "offset": 0,
            "slot": "2",
            "type": "t_bool"
          }
        ],
        "numberOfBytes": "96"
      },
      "t_uint256": {
        "encoding": "inplace",
        "label": "uint256",
        "numberOfBytes": "32"
      },
      "t_uint64": {
        "encoding": "inplace",
        "label": "uint64",
        "numberOfBytes": "8"
      }
    }
  }
}